:100000000C946B020C9493020C9493020C94930244
:100010000C9493020C9493020C9493020C9493020C
:100020000C9493020C9493020C9493020C94EB1690
:100030000C9493020C9493020C9493020C949302EC
:100040000C945E170C9493020C9477190C94A919D4
:100050000C9493020C9493020C9493020C949302CC
:100060000C9493020C949302174D656E750D0A0063
:10007000706F73593A00706F73583A00496E666F2B
:100080000D0A005461696D2032205061656E742143
:1000900000506F6F6F6F6F3F3F20496E206D79206A
:1000A00070616E74733F00CB00BD00AD00496E7689
:1000B000657274207061696E74696E670046696C60
:1000C0006C207061696E74696E6700436C65617263
:1000D000207061696E74696E670010010401F2009E
:1000E000E200517569742047616D62695061696E03
:1000F000740043616E766173206F7065726174691C
:100100006F6E73005361766520746F2065657000B3
:100110004C6F61642066726F6D2065657000100A17
:100120003FC0508089009F80B6C0DFA0DFA09080D4
:1001300049003FC0100A3FC040008000800080009E
:1001400080008000800040003FC0100AFF00008057
:100150003C4066404240424066403C400080FF00D8
:10016000100A3FC0400083C0844088809100BE00D8
:10017000800040003FC0100A3FC04000844087C05C
:1001800084408280A1009E0040003FC003053F21C3
:100190003F1208120A100A0E1C0E0C1E0C141A1420
:1001A000161F161E131E1E1B1E1E1F1E3F213F3A2A
:1001B0002F3A173D173F213F181F02040A041F0E54
:1001C00004040E1F0A1F0A0E0E1F04110E2E252EE8
:1001D0002F2A2E262929021F02081F08150E0404A3
:1001E0000E150E15151B151B040604040C04000047
:1001F000000017000300031F0A1F16371A19041303
:100200000A153A000300000E11110E000A040A0438
:100210000E040030000404040010001804031F1131
:100220001F121F101D151711151F07041F17151D6D
:100230001F151D01011F1F151F17151F000A0000A4
:100240003200040A110A0A0A110A040115020E11E9
:10025000171E051E1F150A0E110A1F110E1F15115C
:100260001F05010E111D1F041F111F1108100F1F64
:10027000041B1F10101F061F1E040F0E110E1F0956
:10028000060E112E1F051A121509011F011F101F3E
:100290000F180F1F0C1F1B041B031C031915130041
:1002A0001F11030418111F00020102202020000169
:1002B000020C121E1F120C0C12120C121F0C1A141C
:1002C000041E05242A1E1F021C141D1020201D1FA1
:1002D0000814111F101E041E1E021C0C120C3E0AD4
:1002E000040C123E1E040214160A020F120E101EF7
:1002F0000E100E1E081E120C1226281E322A26046C
:100300001E21001F00211E040102013F213F0A4E51
:100310006F2053442063617264206F720A6E6F20F5
:100320004C4F414445522E4845580A0A153A4578E3
:100330006974001D20466C617368696E670A20202D
:100340006C6F616465722E2E2E0A0A444F4E27543C
:10035000205455524E204F464621000A0A153A496C
:10036000676E6F7265006D560A0A504C45415345E1
:10037000205455524E204F464620004C4F572042A5
:100380004154544552592120001753440016137804
:1003900000161314001510200015201000540A0335
:1003A000E181867F3E186D830F0F0E0183866033D7
:1003B000186DC3198F1803C38E6033186DE330CFE7
:1003C0001803C39E603630CDE360CF3006C79E7EF3
:1003D0003E30CDB360CF300CC6F6603330D9B66056
:1003E000CF33CFCCF66061B0DB1E60CF30D86CE687
:1003F000C061B0DB1E618F19986CC6C063B19B0EE3
:10040000330F0FB078C6FF7E1F1B061E0F05008935
:100410003008023802497868140000F6E8DBCFC3E0
:10042000B8AEA49B928A827B746E68625C57524E0F
:100430004945413E3A3734312E2C29272523211FA7
:100440001D1C1A1917161514131211100F0E0D0C6E
:100450000B0A09080706450068010000050068014D
:1004600038010000050038016801000074047004C0
:100470000101FF030101F703000000080002010071
:10048000000304070000000000000000010204084F
:1004900010204080010204081020010204081020EE
:1004A000040404040404040402020202020203031A
:1004B00003030303000000002300260029000000BE
:1004C0000000250028002B00000000002400270069
:1004D0002A00F707D91911241FBECFEFD8E0DEBFDD
:1004E000CDBF11E0A0E0B1E0EEE7FFE302C0059070
:1004F0000D92AE34B107D9F726E0AEE4B1E001C009
:100500001D92AF3CB207E1F714E0C6EDD4E004C0A1
:100510002297FE010E946D1EC23DD107C9F70E94BD
:100520001D1A0C94BD1F0C940000DC01643508F00A
:1005300053C0403308F050C090968C919097342F60
:10054000359535953595E62FFF27E7FDF095242F56
:100550002770823099F4DF01A15EBB4F84E5380239
:10056000A00DB11D11248C9190E0022E02C0959532
:1005700087950A94E2F78095817009C0833039F439
:1005800046271C968C91482740FF03C014C0811158
:1005900012C084E53802E00DF11D1124E15EFB4F2D
:1005A00081E090E0022E01C0880F0A94EAF780955E
:1005B0009081982310C084E53802E00DF11D1124CC
:1005C000E15EFB4F81E090E0022E01C0880F0A94AB
:1005D000EAF79081982B908308956F927F928F9283
:1005E0009F92AF92BF92CF92DF92EF92FF920F93C2
:1005F0001F93CF93DF9390E09C012E5F3F4F70E0FD
:10060000B0900A0148E1A42EA29EF001A39EF00D35
:100610001124DF01A60FB71FA05BBE4FBC922B5F5A
:100620003F4FA29EA001A39E500D1124DA01A60FF8
:10063000B71FA05BBE4FBC92DC0113969B012F5FDE
:100640003F4FAA9EE001AB9ED00D1124DE01A20F08
:10065000B31FA05BBE4FBC928C010A5F1F4FA09ED0
:100660003001A19E700C1124260D371D205B3E4FDA
:10067000D901BC929B012E5F3F4F8F01020F131FC8
:10068000005B1E4FD801BC928E01020F131F005B4E
:100690001E4FD801BC927C01B4E0EB0EF11CAE9C65
:1006A0008001AF9C100D11247801E20EF31ED701DA
:1006B000A05BBE4FBC927C01B5E0EB0EF11CAE9C82
:1006C0004001AF9C900C11247401E20EF31ED7017F
:1006D000A05BBE4FBC927301E20EF31ED701A05B7C
:1006E000BE4FBC92240F351F205B3E4FD901BC92F8
:1006F0009B012D5F3F4F6C01BFEFCB1ADB0AAC9C17
:100700007001AD9CF00C1124E20EF31ED701A05B2A
:10071000BE4FBC927F01E20EF31ED701A05BBE4F1D
:10072000BC927801E20EF31ED701A05BBE4FBC92D3
:100730007401E20EF31ED701A05BBE4FBC927A019A
:10074000E20EF31ED701A05BBE4FBC926C01B8E075
:10075000CB0ED11CAC9C7001AD9CF00C1124E20EB0
:10076000F31E9701205B3E4FD901BC929B012C5F89
:100770003F4FA89E6001A99ED00C11247601E20E85
:10078000F31ED701A05BBE4FBC927F01E20EF31EA9
:10079000D701A05BBE4FBC927E01E20EF31ED701D3
:1007A000A05BBE4FBC927801E20EF31ED701A05BA6
:1007B000BE4FBC927401E20EF31ED701A05BBE4F88
:1007C000BC927301E20EF31ED701A05BBE4FBC9238
:1007D0007A01E20EF31ED701A05BBE4FBC920996D0
:1007E000A89E7001A99EF00C11242E0D3F1D205BC8
:1007F0003E4FD901BC92CB0105969601280F391FB7
:10080000205B3E4FD901BC929F01280F391F205B0E
:100810003E4FD901BC929E01280F391F205B3E4FED
:10082000D901BC92080F191F005B1E4FD801BC9262
:100830009401280F391F205B3E4FD901BC929301D0
:10084000280F391F205B3E4FD901BC929A01280F17
:10085000391F205B3E4FD901BC928E0D9F1D805BDE
:100860009E4FDC01BC92CB010696E80FF91FE05BBE
:10087000FE4FB082FA01E80FF91FE05BFE4FB08235
:10088000695F7F4FC60FD71FC05BDE4FB882D301B1
:10089000A60FB71FA05BBE4FBC92DF91CF911F91F7
:1008A0000F91FF90EF90DF90CF90BF90AF909F900F
:1008B0008F907F906F90089520E531E051E080E0C7
:1008C00090E0F901E80FF91F408145274083019628
:1008D00088319105B1F7285E3F4F83E02039380712
:1008E00071F7089540E551E020E030E0FA01E20FB1
:1008F000F31F80832F5F3F4F28313105B9F7485EE2
:100900005F4F93E04039590779F7089543E067EA6C
:1009100070E087E993E00E94BA10813029F08230BC
:1009200031F0811106C001C081E00C9472040C9476
:100930005C04089580E090E00E94801E009751F0D2
:100940002DB73EB7AC014C595F4F4217530710F417
:100950000C94181F6EE071E08EE296E00E94AC1AD3
:10096000FFCF80E00E94720487E993E00E940C149C
:1009700061E970E087E993E00E948F1348E263E841
:1009800070E087E993E00E94D60E0C949A04EF92EF
:10099000FF920F931F93CF93DF931F92CDB7DEB7D4
:1009A00087E993E00E940010882309F4CAC240E05E
:1009B00060E085EE93E00E9495024FE260E085EEF4
:1009C00093E00E94950240E063E585EE93E00E948B
:1009D00095024FE263E585EE93E00E94950261E0A7
:1009E00081EA93E00E942A09882321F081E0809324
:1009F000960308C061E081EA93E00E943309811107
:100A00001092960363E081EA93E00E942A0988230A
:100A100021F081E08093950308C063E081EA93E0D0
:100A20000E94330981111092950360E081EA93E0FE
:100A30000E942A09882321F081E08093940308C052
:100A400060E081EA93E00E943309811110929403DF
:100A500062E081EA93E00E942A09882321F081E084
:100A60008093930308C062E081EA93E00E94330917
:100A700081111092930364E081EA93E00E942A09B5
:100A8000882321F081E08093920308C064E081EA2A
:100A900093E00E94330981111092920365E081EA8C
:100AA00093E00E942A09882331F080910B0191E0A4
:100AB000892780930B0190919603992329F08091C7
:100AC000900381508093900380919503882329F0AF
:100AD000809190038F5F8093900320919403222351
:100AE00029F0809191038150809391038091930329
:100AF000882329F0809191038F5F809391038091E7
:100B00009103843510F0109291038091910381112B
:100B100005C0222319F083E580939103809190030F
:100B2000803310F01092900380919003811105C0E2
:100B3000992319F08FE28093900364E081EA93E0B7
:100B40000E942A098823A1F0809191038454863061
:100B500078F4809190039CEF980F963020F481E018
:100B600080930A0105C08F50863010F410920A015C
:100B700064E081EA93E00E942A09882369F1809168
:100B8000910394EF980F963080F48091900393EE48
:100B9000980F963018F410924F0113C08852863087
:100BA000D8F410924F0181E015C081528630A0F434
:100BB0008091900393EE980F963030F481E080930B
:100BC0004F0110924E0108C08852863028F481E00F
:100BD00080934F0180934E010AE12AE140E06DE1EC
:100BE00085EE93E00E941E0A00E511E02EE1E12C63
:100BF000F12CF801EE0DFF1D8081882349F041E0C2
:100C00004E0D622F85EE93E029830E949502298183
:100C10008FEFE81AF80AE8E1EE16F10451F7085EE2
:100C20001F4F2F5F263319F78091910393EE980F92
:100C3000993108F0B2C0709190036FEF670F68317F
:100C400008F0ABC090919203992309F4A6C01091CB
:100C50004F0190914E01112311F091112BC0282FBB
:100C600030E02E51310948E1429FF001439FF00DE1
:100C70001124E05BFE4FE70FF11D319720910A012F
:100C80002083111117C0992309F487C07831B9F076
:100C9000282F30E02E51310948E1429FF001439F57
:100CA000F00D1124E70FF11DE05BFE4F20910A01CA
:100CB000208305C0992351F3911166C020C085336C
:100CC000D9F0282F30E02D513109472F50E0009105
:100CD0000A01A8E1A29FF001A39FF00D1124DA01FF
:100CE000AE0FBF1FA15BBE4F0C93783129F0E40F0C
:100CF000F51FE05BFE4F00831111DECF4EC0773150
:100D000088F4282F30E02E51310998E1929FF001AC
:100D1000939FF00D1124E05BFE4FE70FF11D9091C2
:100D20000A0191838433C8F590E0AC014C5151091C
:100D3000272F30E060910A0118E1149FF001159F00
:100D4000F00D1124D901AE0FBF1FA15BBE4F6C93F4
:100D5000773118F5A9014F5F5F4FDF01A40FB51F71
:100D6000A05BBE4F6C934D97189FD001199FB00D9B
:100D70001124A40FB51FA05BBE4F6C93E20FF31FAD
:100D8000E05BFE4F608309C0613138F48D3228F496
:100D90008D3119F08E510E94ED0280910B01882354
:100DA00059F181E08093EE036CE770E085EE93E00B
:100DB0000E946A1A66E770E085EE93E00E946A1A64
:100DC0004AE050E06091910385EE93E00E94761B2B
:100DD00060E770E085EE93E00E946A1A4AE050E016
:100DE0006091900385EE93E00E94761B68E670E0C8
:100DF00085EE93E00E946A1A4091900360919103FE
:100E000085EE93E00E94950226E731E042E069E337
:100E100085EE93E00E94EE0B2AE431E042E063E4C9
:100E200085EE93E00E94EE0B20E631E04DE069E3B1
:100E300085EE93E00E94EE0B2AE431E04DE063E49E
:100E400085EE93E00E94EE0B24E331E04BE161E09C
:100E500085EE93E00E94EE0B2AE431E04BE16BE07B
:100E600085EE93E00E94EE0B41E264E085EE93E0B4
:100E70000E94950224E331E046E261E085EE93E0D2
:100E80000E94EE0B2AE431E046E26BE085EE93E04F
:100E90000E94EE0B02E022E04BE264E085EE93E07C
:100EA0000E94460A24E331E04BE166E185EE93E0DF
:100EB0000E94EE0B2AE431E04BE160E285EE93E024
:100EC0000E94EE0B03E023E04FE169E185EE93E041
:100ED0000E94460A2EE131E046E266E185EE93E0AB
:100EE0000E94EE0B2AE431E046E260E285EE93E0F8
:100EF0000E94EE0B80910A0102E022E0882311F0AB
:100F000046E001C041E166E485EE93E00E94460AB6
:100F100090914F0180914E0102E022E0911107C0B3
:100F2000811102C04FE101C04AE26EE006C08111AA
:100F300002C04FE101C04AE263E285EE93E00E9405
:100F4000460A66E081EA93E00E942A09882309F4B0
:100F500045C044E06AED70E087E993E00E94BA1072
:100F6000813001F13CF4811139C000E511E0E12C40
:100F7000F12C09C0823081F1833081F587E993E05B
:100F80000E940C122BC0C7010E94A71FF801819379
:100F90008F01FFEFEF1AFF0A80E4E81682E0F806FF
:100FA00091F71CC000E511E0E12CF12CF8016191F2
:100FB0008F01C70169830E94A71F6981681719F013
:100FC000C7010E94AF1FFFEFEF1AFF0A80E4E81687
:100FD00082E0F80659F702C00E9486040F90DF9164
:100FE000CF911F910F91FF90EF900C949A04109263
:100FF000E8031092E70381E291E09093E603809387
:10100000E5030895CF93CFB7F89480911E04811122
:1010100027C0EAEAF4E08491E6E9F4E09491E82F4D
:10102000F0E0EE0FFF1FE853FB4FA591B4918C91B8
:10103000892321F461E08AE00E94181961E08AE0C6
:101040000E94DF188CB580618CBD8CB580648CBD2E
:1010500061E08DE00E94DF1861E08BE00E94DF1804
:1010600080911E048F5F80931E04CFBFCF9108959F
:1010700021E0FC012083089570E085E00C9457186E
:10108000AF92BF92CF92DF92EF92FF920F931F9396
:10109000CF93DF93EC0189819A812FE0289F800113
:1010A000299F100D112485E10E943A18800F911F8D
:1010B00024E0969587952A95E1F79A83898328817C
:1010C000222391F1AC81AD80B12CC12CD12CE885CB
:1010D000F9857F0100E010E06E817F819B0140E097
:1010E00050E08617970728F0BC01E817F90708F4C5
:1010F000BF0180E090E01F921F921F92AF930E9469
:10110000931B6B830F900F900F900F9070E085E012
:10111000DF91CF911F910F91FF90EF90DF90CF90D3
:10112000BF90AF900C945718DF91CF911F910F9102
:10113000FF90EF90DF90CF90BF90AF900895FC01AB
:101140008CE39FE09383828384E0818381E08487C2
:101150000895CF93DF93EC018C819D81892B81F1E0
:101160008C858F7151F584E10E943A18BC01882763
:1011700077FD8095982F0E94EC1C26EE3FE34EEC05
:1011800050E40E94781D0E94BE1C9B017B836A83F1
:101190006115710581F084E08983FE0140E084815E
:1011A00095812817390710F449830AC04F5F32969A
:1011B0004430A9F702C08FEF89838C858F5F8C87BD
:1011C000DF91CF910895FC0188E0808389E08183DD
:1011D00087E0828386E0838384E0848382E0858362
:1011E00081E186830895DF92EF92FF920F931F9320
:1011F000CF93DF937C01EC0100E010E0DD24DA9472
:1012000062E088810E94DF1888810E944E19F701F0
:10121000E00FF11F892B21F487818F5F878308C03E
:101220008781882349F08F3F11F4178201C0D7824C
:1012300060E088810E94DF180F5F1F4F2196073002
:101240001105F1F6DF91CF911F910F91FF90EF9073
:10125000DF900895FC01E60FF11D81E09781913048
:1012600009F080E00895FC01E60FF11D81E097810F
:101270009F3F09F080E00895262F30E0FC01E20F47
:10128000F31F8781423028F481508E3F48F080E080
:1012900008958F3FE1F3642F0E94EB1D9130B9F761
:1012A00081E008958EBD00000DB407FEFDCF8EB520
:1012B00008951F93CF93DF93EC01162FF89460E00D
:1012C0008F850E941819888918161CF460E00E9406
:1012D0001819812F0E945209888918161CF461E0A0
:1012E0000E9418197894DF91CF911F91089528EFEB
:1012F00031E0EFE1F4E0DF01A9011D9241505040DF
:10130000E1F7DC0119961C9219971A961C92089520
:10131000DF92EF92FF920F931F93CF93DF93EC0135
:101320008C858F5F8C878FE1E82E84E0F82ED12C9E
:101330006D2D6064CE010E94590960E8CE010E94C3
:10134000590961E08F850E941819888918161CF4C4
:1013500060E00E94181900E010E0F701E00FF11FB3
:1013600080810E9452090F5F1F4F04351105A9F7B4
:10137000888918161CF461E00E941819D39484E53A
:10138000E80EF11C86E0D812D3CF60E4CE01DF91E5
:10139000CF911F910F91FF90EF90DF900C9459091E
:1013A000FC0160A361A30895FC0160A341A308951B
:1013B000CF92DF92FF920F931F93CF93DF931F92F1
:1013C000CDB7DEB76C01062FF42E10E0121754F4DF
:1013D000412F4F0D602FC60129830E9495021F5F88
:1013E0002981F4CF0F90DF91CF911F910F91FF9042
:1013F000DF90CF900895CF92DF92FF920F931F93CB
:10140000CF93DF931F92CDB7DEB76C01062FF42E7A
:1014100010E0121754F4612F600F4F2DC60129837D
:101420000E9495021F5F2981F4CF0F90DF91CF9129
:101430001F910F91FF90DF90CF900895EF92FF9250
:101440000F931F93CF93DF93EC01F62E142FE22E10
:101450000E94FB094FEF400F410F2E2D6F2DCE0143
:101460000E94FB09202F412F6F2DCE010E94D80929
:101470006FEF6E0D6F0D202F412FCE01DF91CF91B9
:101480001F910F91FF90EF900C94D809DF92EF928B
:10149000FF920F931F93CF93DF93EC01E62ED22E92
:1014A000F42E112707FD1095040F111D47FD1A9505
:1014B0008F2D992787FD90958017910744F42D2D46
:1014C0004F2D6E2DCE010E94FB09F394F1CFDF91D9
:1014D000CF911F910F91FF90EF90DF9008958F9221
:1014E0009F92AF92BF92CF92DF92EF92FF920F93B3
:1014F0001F93CF93DF93EC01E62ED42E122FCC2432
:10150000C394C21AB22EB194BB0CF12C802F8470FC
:10151000A82E802F8270982E802F8870882E0170C0
:10152000F1160CF04DC0C7FC04C01150B394B39435
:10153000CB0CF3948F2D880F8F5FC80EAA2071F00B
:10154000412F4D0D6F2D6E0DCE010E9495024F2D36
:101550004D0D612F6E0DCE010E949502992071F004
:101560004D2D411B6F2D6E0DCE010E9495024D2D0C
:101570004F19612F6E0DCE010E949502882071F0E7
:101580004F2D4D0D6E2D611BCE010E949502412FF6
:101590004D0D6E2D6F19CE010E949502002309F4A6
:1015A000BFCF4D2D4F196E2D611BCE010E949502AC
:1015B0004D2D411B6E2D6F19CE010E949502B0CFAB
:1015C000DF91CF911F910F91FF90EF90DF90CF901F
:1015D000BF90AF909F908F9008958F929F92AF92FF
:1015E000BF92CF92DF92EF92FF920F931F93CF9310
:1015F000DF93EC01B62EA42E122FDD24D394D21A41
:10160000C22EC194CC0CFF24F394802F8170882EBD
:10161000992493949E0C02708FEF8F0D8117C4F55F
:10162000D7FC04C01150C394C394DC0C8F2D880FD9
:101630008F5FD80E882099F0212F220F290D4A2D77
:10164000411B6F2D6B0DCE010E94D80923E02E0D9A
:101650004A2D4F19612F6B0DCE010E94D80900232E
:1016600099F0212F220F290D4A2D411B6B2D6F1947
:10167000CE010E94D80923E02E0D4A2D4F196B2D63
:10168000611BCE010E94D809F394E394E394C4CF84
:10169000DF91CF911F910F91FF90EF90DF90CF904E
:1016A000BF90AF909F908F9008959F92AF92BF92FE
:1016B000CF92DF92EF92FF920F931F93CF93DF931E
:1016C000EC01B62EF42EA22EDE2CD194DD0C9D2C36
:1016D000920E1E2D160F292D612F0E94FB09CC247E
:1016E000CA94C00ECF0C292D4C2D612FCE010E9423
:1016F000FB09D00EFE0C2D2D4F2D6B2DCE010E941F
:10170000D809BA0C6FEF6B0D2D2D4F2DCE010E9415
:10171000D80901E02E2D4F2D612FCE010E946F0AB6
:10172000DE2CD094DB0C02E02E2D4F2D6D2DCE0142
:101730000E946F0ACE1804E02E2D4C2D6D2DCE0187
:101740000E946F0A08E02E2D4C2D612FCE010E94C1
:101750006F0ADF91CF911F910F91FF90EF90DF9073
:10176000CF90BF90AF909F900895AF92BF92CF92CD
:10177000DF92EF92FF920F931F93CF93DF93EC01D1
:10178000A62EC42EB22EF02E1E2DE194EE0CD12EDC
:10179000D60E2E2D2B0D6D2D0E94460AFA94FE0CAE
:1017A000C10E6FEF6A0D6B0D611BEF2C01E0212F55
:1017B0004C2DCE010E94ED0A02E0212F4C2D6D2D03
:1017C000CE010E94ED0ADF91CF911F910F91FF9002
:1017D000EF90DF90CF90BF90AF9008956F927F927F
:1017E0008F929F92AF92BF92CF92DF92EF92FF9231
:1017F0000F931F93CF93DF93F901A49031965491E7
:10180000FC01F0A064350CF00CC1BB24A7FCB09423
:10181000A62FBB27A7FDB095FD01EA0DFB1D1E16E7
:101820001F060CF0FEC040330CF0FBC0C52E042F89
:10183000112707FD1095E801C50FD11D57FDDA9559
:101840001C161D060CF0EDC0E90122969501295FDA
:101850003F4F37FF02C0295F3F4F73E03595279513
:101860007A95E1F747FF0AC0C52EC40E209FA0015C
:10187000219F500D1124C41BD50B40E00C2D1127C6
:1018800007FD1095040F111D47FD1A950133110531
:101890001CF070E3C72EC41A67FD60E0E535F10562
:1018A00014F0E4E5F0E01E2FFC0174857427862F08
:1018B000992787FD9095FC01EA1BFB0BDF015F0177
:1018C000F7E0AF22BB24E0E8F0E002C0F595E79531
:1018D000AA94E2F70E2FB7FD179653E0B595A7959A
:1018E0005A95E1F7AC0FBD1FE42FE77051E001C03E
:1018F000550FEA95EAF7459545954595E4E54E027D
:10190000800D911D1124815E9B4F40E0DD24C7FCBA
:10191000D094BB24B3943327E42FF0E0EC15FD05FD
:101920000CF07FC0FD01E490F1E0FF1219C0EC0162
:10193000A02EFD01862E881A9C2E980C911608F078
:1019400067C09E2C9A2019F09880952A9882A694B8
:1019500029F43196E4906894AA24A7F82196ECCF54
:10196000F1101BC0752E7094EC01A02EFD01862E87
:10197000881A9C2E980C911608F04AC09E2C9A202A
:1019800019F0988097209882A69429F43196E490D3
:101990006894AA24A7F82196ECCFE3E0FE1631F074
:1019A000EC01A02EFD01862E881A2EC0752E709493
:1019B000962EEC01A02EFD019116B0F48E2C8A20FB
:1019C00049F08880692C672660FE02C0852A01C024
:1019D00087208882A69429F43196E4906894AA24FA
:1019E000A7F893942196E8CF7B2512C09E2C9A20CD
:1019F00019F0988095269882A69429F43196E4905F
:101A00006894AA24A7F821969C2E980C911670F33E
:101A1000550F19F48C5A9F4F51E04F5FA20FB31F1F
:101A20007BCFDF91CF911F910F91FF90EF90DF90CF
:101A3000CF90BF90AF909F908F907F906F900895C0
:101A4000DC01FB0184918F5F14968C93149731967F
:101A5000E491EF5F1596EC9315976E5F7F4F5F965D
:101A60007C936E935E970895EF920F93CF93DF93DD
:101A7000EC014E876D872F87E98A088B81E0888784
:101A800088A319A28F836CE871E0CE010E94200D1B
:101A90000E9402088CB58F7D8CBD8CB58C7F8160D7
:101AA0008CBD8DB581608DBD8CB58C608CBD61E0C9
:101AB0008E850E94DF1861E08D850E94DF1861E04D
:101AC0008F850E94DF18898918161CF461E00E9436
:101AD000DF18888918161CF461E00E94DF188989D4
:101AE00018166CF460E00E9418196AE070E080E05B
:101AF00090E00E94D71761E089890E9418198D85AE
:101B0000992787FD9095FC01E056FB4FE491F0E0AA
:101B1000EE0FFF1FE254FB4F259134913D8B2C8B30
:101B2000FC01E457FB4F84918B8F8E85992787FDAD
:101B30009095FC01E056FB4FE491F0E0EE0FFF1FA3
:101B4000E254FB4F259134913B8B2A8BFC01E457E7
:101B5000FB4F84918A8F8889992787FD9095FC0196
:101B6000E056FB4FE491F0E0EE0FFF1FE254FB4F15
:101B7000259134913F8B2E8BFC01E457FB4F8491D0
:101B80008C8F8F85992787FD9095FC01E056FB4F40
:101B9000E491F0E0EE0FFF1FE254FB4F25913491EA
:101BA000398F288FFC01E457FB4F84918D8F61E2C0
:101BB000CE010E94590964E1CE010E9459098B852A
:101BC00087FF02C08FE78B876B856068CE010E941C
:101BD000590960E2CE010E9459096CE0CE010E94D1
:101BE0005909CE01DF91CF910F91EF900C948809A4
:101BF0006F927F928F929F92AF92BF92CF92DF921D
:101C0000EF92FF920F931F93CF93DF93EC01162F68
:101C1000F42EB02EE8A064350CF081C08FE284175A
:101C20000CF47DC0EC81F0E031970E9FC0010F9F56
:101C3000900D1124860F911D67FD9A9518161906AF
:101C40000CF06DC08D81809FC0011124840F911D07
:101C500047FD9A95181619060CF061C0A62E962E0F
:101C6000C22ED12C8A2D811B992787FD90952C811E
:101C700030E0821793070CF051C0215031098217D0
:101C8000930779F0C29ED001C39EB00DD29EB00DD5
:101C90001124A80FB91FEE8DFF8DEA0FFB1F749062
:101CA00001C0712C8F2C6F2C282D2F19332727FD65
:101CB00030958D8190E0281739076CF570FE11C0C2
:101CC00081E0B81206C0482D6A2DCE010E9495020F
:101CD0001EC00B2D2B2D462D692DCE010E94460ACC
:101CE00016C089A198A1891791F088A381E0B81244
:101CF00006C0482D6A2DCE010E94950207C00B2D0B
:101D00002B2D462D692DCE010E94460AE8A276941D
:101D10006B0C8394C9CF9B0CA394A4CFE8A2DF9152
:101D2000CF911F910F91FF90EF90DF90CF90BF90D8
:101D3000AF909F908F907F906F9008950F93CF9367
:101D4000DF93EC01262F6A3039F42D8198858A853E
:101D5000299F800D112422C06D3011F108854A851C
:101D600069850E94F80D48855C812985549F200D66
:101D7000112429878F81882399F0332727FD3095F7
:101D800084E590E0459F80199109112482179307FB
:101D90003CF49D818A85499F800D11248A8719868C
:101DA00081E090E0DF91CF910F910895FC01EC5715
:101DB000FF4F718360833296445F408308958F9212
:101DC0009F92AF92BF92CF92DF92EF92FF920F93CA
:101DD0001F93CF93DF93EC015C0186E8A80EB11C42
:101DE000D5018C91882309F44DC08C3018F41CE087
:101DF000181B01C010E0FE01EA5AFF4F81E080830A
:101E00006E01BEE4CB0ED11C60E0C6010E94D00979
:101E10004E01E3E58E0E911CD4018C9103E0080F76
:101E20009DE2F92E4F2D481B410F23E0E22E24E5C1
:101E300060E0C6010E94B50B61E0C6010E94D009B6
:101E4000F401808103E0080F4F2D481B410F24E56A
:101E500060E0C6010E94550BFE01E95AFF4F84E085
:101E600080833196D4018C91181B115D1083CC575F
:101E7000DF4F68817981C6010E946A1AF50180816D
:101E800081508083DF91CF911F910F91FF90EF9050
:101E9000DF90CF90BF90AF909F908F900895DF928A
:101EA000EF92FF920F931F93CF93DF93EC018C8DF2
:101EB0009D8D892B09F49CC08E01025B1F4F40E071
:101EC00061E0C8010E94D40985E5FE01EE5AFF4F8A
:101ED0009081891B3596808331961082698D61309F
:101EE00009F462C028F0888D653008F074C06FC0B6
:101EF000CE0185960E94911581E0FE01EA5AFF4FBE
:101F000080836CE871E0C8010E94200D1D8E1C8E3C
:101F1000FE01EC5AFF4F108238EAD32E7E018AE090
:101F2000E80EF11CCE010E9400108823D9F36BE764
:101F300073E0C8010E946A1A6A8D7B8D4AE050E006
:101F4000C8010E948D1B66E673E0C8010E946A1AF0
:101F50006D2D62956F7070E04AE050E0C8010E94FC
:101F6000611B6BE573E0C8010E946A1A64E0C70157
:101F70000E942A0981113CC0DA94A1F660E0CE01EA
:101F80000E943C0883B7817F846083BF83B78160F0
:101F900083BF83B7816083BF889583B78E7F83BFFC
:101FA00083B78E7F83BFBECFCF58DF4F4881598123
:101FB0006A817B814F705527662777274830510506
:101FC0006105710510F467E009C068E707C0882360
:101FD00079F06B5F03C0882359F06FE2C801DF918D
:101FE000CF911F910F91FF90EF90DF900C948F1A7B
:101FF000DF91CF911F910F91FF90EF90DF900895A7
:102000008F929F92AF92BF92EF92FF920F931F9386
:10201000CF93DF93EC017C0100E8E00EF11CF701A7
:1020200080809180A280B3800E94A81795018401CE
:10203000061B170B280B390BB901A8015E011FE71E
:10204000A10EB11CF501808190E0A0E0B0E08E010E
:1020500005581F4F84179507A607B70750F4F801D6
:1020600080819181A281B381892B8A2B8B2B09F0EE
:1020700040C0F80180819181A281B381892B8A2B94
:102080008B2BA9F57E01F5E2EF0EF11CC7010E9432
:102090008E15C7010E94FB15C7010E94BF16CE0115
:1020A0000E94DF0ECE010E944F0F7E012EE4E20E51
:1020B000F11CC7010E948809FE01EC5AFF4F808184
:1020C000811103C0C7010E9477090E94B417F8016B
:1020D0006083718382839383FE01EB58FF4FC9585D
:1020E000DF4F28813981621B730B7183608380E02D
:1020F00036C00E94A817F5012081620F711D811D55
:10210000911DF7016083718382839383FE01EF58F1
:10211000FF4F40815181628173814F5F5F4F6F4FED
:102120007F4F4083518362837383F8011082118251
:10213000128213820E94B417FE01E958FF4F608398
:10214000718382839383CE010E944008CE010A9658
:102150000E94F308CE0148960E94A90881E0DF9111
:10216000CF911F910F91FF90EF90BF90AF909F90F4
:102170008F9008952F923F924F925F926F927F922D
:102180008F929F92AF92BF92CF92DF92EF92FF9287
:102190000F931F93CF93DF93CDB7DEB766970FB63C
:1021A000F894DEBF0FBECDBF9E8B8D8B6F87788B73
:1021B000942EFC01EC5AFF4F108288248A941C82D2
:1021C000A12C30E33B83B12C6C018AE0C80ED11CFA
:1021D0006D887E8893E5690E711CED89FE89B59640
:1021E0002F01242F30E03A8729878D899E89895ACB
:1021F0009F4F9E838D83ED89FE89E85AFF4FF887B4
:10220000EF832D893E892A5A3F4F3C872B878D8942
:102210009E898B5A9F4F9E878D87ED89FE89E25B51
:10222000FF4F1F018D899E890E9400108823D1F3E2
:1022300064E0C6010E942A093B81032F112707FD94
:10224000109581113EC065E0C6010E942A098111E6
:1022500038C066E0C6010E942A09811132C03C8163
:10226000311142C044E063E0C6010E943C0988236A
:1022700021F0B394C2010E943B1744E061E0C60123
:102280000E943C09882321F0BA94C2010E943B17A6
:102290008B2D992787FD9095E985FA858E179F07E5
:1022A00031F0B7FE05C0BB24BA94B90C01C0B12C03
:1022B000F301808174E0A72EA80E8B9DA018112435
:1022C0001DC0F301A08064E0C6010E942A09882392
:1022D00009F484C0C2010E940F178B2CA194A99C01
:1022E000A02C1124AA94AA94C8018A199109A7FCC8
:1022F000939502970CF476C031E03C830A0D111DD2
:10230000A7FC1A9517FF02C00F5F1F4FC8019595D4
:1023100087959A83898329812B83ED81FE811082A1
:10232000EF81F885808381E0EB85FC858083ED85F6
:10233000FE8510820F851889E12CF12C4B2D552735
:1023400047FD509533E0E91420F5E416F50669F4ED
:10235000ED81FE813083F3018081F22FB89EF00D74
:1023600011248F2FEF81F8858083F8016591749196
:10237000C101298B3C8B4A8B5B8B0E949A1AFFEF21
:10238000EF1AFF0A0E5F1F4F5B894A893C89298932
:10239000DACF60E0C1010E94D009F3018081498158
:1023A000B89E400D1124415024E560E0C1010E9417
:1023B000FB0961E0C1010E94D009F301808103E0C3
:1023C000080F4981B89E400D1124425053E0E52E7C
:1023D00024E560E0C1010E94550B24CFC2010E9498
:1023E00025177CCF882D66960FB6F894DEBF0FBEFA
:1023F000CDBFDF91CF911F910F91FF90EF90DF90B4
:10240000CF90BF90AF909F908F907F906F905F9094
:102410004F903F902F9008950F931F93CF93DF938A
:102420008C01EC01C25BDF4FCE010E94770963E3B0
:1024300073E0CE010E946A1ACE010E9488098CB511
:1024400083608CBD8DB58E7F8DBD85E291E0EEEF12
:10245000FFE30995F801EC5AFF4F10826EE073E03C
:10246000CE010E949A1ACE010E948809065F1F4F72
:10247000C8010E94F30864E0C8010E942A09811182
:1024800007C062E370E080E090E00E94D717F0CFD1
:10249000DF91CF911F910F9108952F923F924F920C
:1024A0005F926F927F928F929F92AF92BF92CF92E4
:1024B000DF92EF92FF920F931F93CF93DF93CDB7ED
:1024C000DEB729970FB6F894DEBF0FBECDBF998750
:1024D00088871B012A013C0180E7680E711CF3010B
:1024E0008081882309F402C181E0E885F985EA5AF0
:1024F000FF4F8083E885F985EB5AFF4F1082E8850E
:10250000F985EC5AFF4F1082E885F985108E8F010E
:10251000025B1F4F61E0C8010E94D0098885998540
:102520008D5A9F4F9C838B83C884D98497E5C90EAD
:10253000D11CE884F984E8E5EE0EF11C88859985C4
:102540008E5A9F4F9A838983E885F985EF58FF4F0C
:10255000FE83ED8388849984FAE08F0E911CA88411
:10256000B98485E2A80EB11C888599850E94001067
:102570008823D1F3F1018491882321F0EB81FC8140
:10258000508101C050E02DE933E040E060E0C80137
:102590005F830E94EE0B5F814114510439F04CE0DF
:1025A000450F920160E0C8010E94EE0BF601108217
:1025B0008CE0F7018083B101C8010E946A1AE981A9
:1025C000FA819081892F880F890F81958D5AF601A4
:1025D0008083EB81FC819081892F880F890F819501
:1025E000835DF7018083ED81FE81808184FF03C0DC
:1025F00069E973E002C065E973E0C8010E949A1AB4
:10260000E981FA819081892F880F890F81958D5AF0
:10261000F6018083F70180818F5F8083E885F985EB
:1026200082A5882319F061E973E002C06DE873E0C8
:10263000C8010E949A1AE981FA819081892F880F36
:10264000890F81958D5AF6018083F70180818F5F14
:10265000808369E873E0C8010E949A1A65E0C401AA
:102660000E942A09882351F0E885F98562A56F5FE9
:10267000C5010E945117C5010E943B1764E0C401C7
:102680000E942A09811113C0F3012081822F90E05A
:10269000A0E0B0E0ED81FE814081518162817381D3
:1026A000481759076A077B07A8F02F3F99F08FEF6B
:1026B000F3018083088519850B5D1F4F60E0C80119
:1026C0000E943815C8010E940F1781E0E885F9853E
:1026D000808F0CC066E0C4010E942A09882309F497
:1026E00043CF888599850E940C1234CF29960FB666
:1026F000F894DEBF0FBECDBFDF91CF911F910F9138
:10270000FF90EF90DF90CF90BF90AF909F908F9011
:102710007F906F905F904F903F902F90089540E092
:1027200050E00C944D12E0E8F7E72591349181E0F8
:102730002130304C09F080E00895CF93DF93EC0115
:102740000E9493139E01275A3F4FDE01A059BF4FAD
:10275000882309F43CC0E6E9F7E78491F901808316
:10276000E7E9F7E7E491EC83E8E9F7E7E491ED8343
:10277000E9E9F7E7859194919F838E83EBE9F7E789
:102780008591949199878887EDE9F7E7E491EBA724
:10279000EEE9F7E7E491EAA7EFE9F7E7E491EC93D4
:1027A000E0EAF7E7859194919D8F8C8FE2EAF7E755
:1027B000859194919F8F8E8FE4EAF7E785919491AC
:1027C00099A388A3E6EAF7E78591949120C08CE36A
:1027D000F90180831C822FEF2D8380E293E09F8399
:1027E0008E8384ED93E09987888781E08BA78AA701
:1027F0002C938CEA9DE09D8F8C8F8EED9DE09F8FBA
:102800008E8F84E79EE099A388A38CE39FE09BA32F
:102810008AA3DF91CF910895CF92DF92EF920F9329
:10282000CF93DF93EC01FC01E158FF4F82E38083FB
:10283000349741E050E060E070E040835183628370
:1028400073833B978FEF8083CE010E949D13CE014F
:102850000E9438086FEFCE010E943C086E018AE0AA
:10286000C80ED11CC6010E94E308C6010E94F308ED
:10287000CE0148960E949F083EE0E32E0FE020E143
:102880004BE06DE0CE01825B9F4F0E94340DA59618
:10289000CE010E94A41465E0C6010E942A09882383
:1028A00051F060E0CE01DF91CF910F91EF90DF907A
:1028B000CF900C94511740E06DE074E0CE01DF91B1
:1028C000CF910F91EF90DF90CF900C944315CF9361
:1028D000DF9350E0FA01EE0FFF1FE80FF91F378575
:1028E0002089E32FF22FE60FF11DE60FF11D259150
:1028F0003491FA01EE0FFF1FE80FF91F30A3278F65
:10290000F90165917491FC01D481D69FC02D1124E9
:10291000E40FF51FC1A3F901A591B4916B2F70E0ED
:10292000EC2FF0E0DC01A40FB51F6E177F0720F439
:10293000F90125913491C32FCD9FC02D112492967A
:10294000CC93DF91CF91089521E0FC01248324E012
:1029500020A72CE634E0308B278740E060E00E941F
:10296000671461E070E083E00E945718E1EBF0E04B
:102970008081887F81608083F89410928000E1E8F4
:10298000F0E01082109285001092840088E191E0BE
:102990009093890080938800808188608083808103
:1029A00081608083EFE6F0E08081826080837894AC
:1029B00008950F93FC01862F642F011129C08230E6
:1029C000D1F048F4882391F0813011F540E0CF0137
:1029D0000F910C9467148330A9F08430C9F484817A
:1029E000489F602D1124658F268F12C04B3008F050
:1029F0006AE0668B0DC08481489F602D1124618F31
:102A0000228F06C08481489F602D1124638F248FFC
:102A10000F910895FC0121110EC0648B8481489FA1
:102A2000402D1124458B15A214A213A281E0878B9F
:102A300080932306108E089580912306882319F031
:102A40008091200601C080E08093B4000895FC01CD
:102A500061110DC0178A158A14A213A2108E10924C
:102A6000200610922106109223060C941C1508953E
:102A7000CF93DF93EC01611103C00E9427151982E7
:102A8000DF91CF9108950F931F93CF93DF93EC01C4
:102A90008B0141110EC060E00E9438151E870D8722
:102AA0001B8A1A8A81E0898389E08E8B198E1B8E9E
:102AB0001D8EDF91CF911F910F910895CF93DF93DA
:102AC000EC01611128C08881882329F18981811155
:102AD00022C089852F819885E22FF92FE80FF11DFB
:102AE000E80FF11D859194918F3F2FEF920711F41C
:102AF000188211C09C879927880F991FEA85FB854A
:102B0000E80FF91F6591749140E0CE010E944315D2
:102B100089858F5F8987DF91CF91089560E00C945C
:102B20005E1560E00C9438150F93CF93DF93EC01A2
:102B300061115DC08981882309F459C08D89811193
:102B400056C02D853E858A899B89880F991F820FE3
:102B5000931FFC01859194910097D1F48989882372
:102B600021F01B8A1A8AF90111C01982888160E05C
:102B7000882331F0CE010E945E158A899B8925C089
:102B8000CE01DF91CF910F910C94271585919491EF
:102B9000BC01769567957695679580FF1DC0AC0161
:102BA000A6E056954795AA95E1F7292F26952695F3
:102BB000269520514F716F7000E0CE010E94D9140C
:102BC0008A899B8901969B8B8A8B880F991FED853B
:102BD000FE85E80FF91FDACF492F6F7320E0CE0191
:102BE0000E940A158A899B8901969B8B8A8BDF91AB
:102BF000CF910F91089560E00C949415CF93DF93DB
:102C0000EC016111B9C08F89882309F4B5C08D89A1
:102C1000811105C0CE01DF91CF910C942715815011
:102C20008D8B8DA1811138C08BA19CA101969C0137
:102C3000220F331FEF8DF8A1E20FF31F259134917E
:102C4000422F47704EA3A90163E0569547956A95B8
:102C5000E1F7BA0176956795232F269526952FA340
:102C60006F732C81629F602D11246DA3417040937E
:102C70001F069CA38BA329A130E08217930760F065
:102C80008AA1882329F0281B31093CA32BA304C067
:102C900060E0CE010E9427158DA181508DA3288D63
:102CA0002F5F288F4C893FA1340F8C85380F3A83D2
:102CB0006B8D662361F070E0822F992787FD9095D8
:102CC0000E940B1E8C8D869F300D11243A838A81C1
:102CD00090E0CB966BE370E00E940B1E8A833E89E6
:102CE0003B83698D662371F0772767FD7095822F8E
:102CF000992787FD90950E940B1E8A8D869F300D27
:102D000011243B836D8D662391F0822F992787FDD7
:102D1000909570E00E940B1ECB0162E070E00E9473
:102D20000B1E2E8D9B81289F900D11249B838B81E0
:102D30004F3339F08A300CF089E087FD80E08B83D7
:102D400001C01B82F894EA81F0E0E55EFB4FE4915C
:102D5000E093220698A58D81989F802D11249B8158
:102D6000899F802D11249EA1899F802D11248093FD
:102D70002106809320067894DF91CF91089560E03A
:102D80000C94FE1560912106662321F180912406A2
:102D90008F5F80932406909122068917D8F0809146
:102DA000230691E0892780932306109224068091C0
:102DB0001F06882369F090910C0183E4989F802D71
:102DC0001124895B80930C010E94EB1D90932006D7
:102DD0000C941C1508951F920F920FB60F92112498
:102DE0002F933F934F935F936F937F938F939F9313
:102DF000AF93BF93EF93FF930E94C216FF91EF91A1
:102E0000BF91AF919F918F917F916F915F914F9102
:102E10003F912F910F900FBE0F901F901895CF9359
:102E2000DF93EC0160E00E94381584E694E09E8711
:102E30008D871B8A1A8A81E0898389E08E8B198E9F
:102E40001B8E1D8EDF91CF910895CF93DF93EC0100
:102E500060E00E9438158CE594E09E878D871B8A80
:102E60001A8A81E0898389E08E8B198E1B8E1D8ED4
:102E7000DF91CF910895CF93DF93EC0160E00E9442
:102E8000381586E594E09E878D871B8A1A8A81E033
:102E9000898389E08E8B198E1B8E1D8EDF91CF91D9
:102EA0000895FC01862F992787FD9095668170E033
:102EB0006F5F7F4F0E940B1E858308951F920F92B4
:102EC0000FB60F9211242F933F938F939F93AF933D
:102ED000BF938091260690912706A0912806B09175
:102EE00029063091250623E0230F2D3720F4019683
:102EF000A11DB11D05C026E8230F0296A11DB11D1D
:102F0000209325068093260690932706A0932806F3
:102F1000B093290680912A0690912B06A0912C0649
:102F2000B0912D060196A11DB11D80932A069093A4
:102F30002B06A0932C06B0932D06BF91AF919F91C5
:102F40008F913F912F910F900FBE0F901F9018956A
:102F50002FB7F89460912606709127068091280675
:102F6000909129062FBF08953FB7F89480912A06C3
:102F700090912B06A0912C06B0912D0626B5A89B0A
:102F800005C02F3F19F00196A11DB11D3FBF662757
:102F9000782F892F9A2F620F711D811D911D42E09C
:102FA000660F771F881F991F4A95D1F70895CF9212
:102FB000DF92EF92FF92CF93DF936B017C010E942F
:102FC000B417EB01C114D104E104F10489F00E94AB
:102FD000DA1B0E94B4176C1B7D0B683E734090F3A4
:102FE00081E0C81AD108E108F108C851DC4FEACFE6
:102FF000DF91CF91FF90EF90DF90CF90089578947C
:1030000084B5826084BD84B5816084BD85B58260ED
:1030100085BD85B5816085BDEEE6F0E0808181608B
:103020008083E1E8F0E0108280818260808380818B
:1030300081608083E0E8F0E0808181608083E1EB63
:10304000F0E0808184608083E0EBF0E0808181604B
:103050008083EAE7F0E08081846080838081826001
:1030600080838081816080838081806880831092EA
:10307000C10008958E3008F08E50877020910D01A8
:1030800090E4299F90011124822B80937C008091F1
:103090007A00806480937A0080917A0086FDFCCF6C
:1030A000809178002091790090E0922B08951F93F1
:1030B000CF93DF93182FEB0161E00E94DF18209778
:1030C00011F460E004C0CF3FD10539F461E0812FF5
:1030D000DF91CF911F910C941819E12FF0E0E8587F
:1030E000FB4FE491E330F9F048F4E130B9F0E2301D
:1030F000A1F584B5806284BDC8BD34C0E730E9F075
:10310000E83019F1E43049F58091800080628093C5
:103110008000D0938B00C0938A0024C084B580685F
:1031200084BDC7BD1FC080918000806880938000EF
:10313000D0938900C093880015C08091B00080684A
:103140008093B000C093B3000DC08091B000806246
:103150008093B000C093B40005C0C038D1050CF016
:10316000B5CFAFCFDF91CF911F910895833081F01C
:1031700028F4813099F08230A1F008958730A9F0C9
:103180008830B9F08430D1F4809180008F7D03C005
:10319000809180008F7780938000089584B58F7729
:1031A00002C084B58F7D84BD08958091B0008F7773
:1031B00003C08091B0008F7D8093B0000895CF93BD
:1031C000DF9390E0FC01E457FB4F2491FC01E056B3
:1031D000FB4F8491882349F190E0880F991FFC01EF
:1031E000E853FB4FA591B49182549B4FFC01C591CC
:1031F000D4919FB7611108C0F8948C9120958223D7
:103200008C93888182230AC0623051F4F8948C91A7
:10321000322F309583238C938881822B888304C03E
:10322000F8948C91822B8C939FBFDF91CF9108955E
:103230000F931F93CF93DF931F92CDB7DEB7282F45
:1032400030E0F901E858FB4F8491F901E457FB4F56
:103250001491F901E056FB4F04910023C9F0882333
:1032600021F069830E94B6186981E02FF0E0EE0F2B
:10327000FF1FE254FB4FA591B4919FB7F8948C9136
:10328000611103C01095812301C0812B8C939FBFD6
:103290000F90DF91CF911F910F910895CF93DF93FE
:1032A000282F30E0F901E858FB4F8491F901E457E9
:1032B000FB4FD491F901E056FB4FC491CC2391F020
:1032C00081110E94B618EC2FF0E0EE0FFF1FEC54B6
:1032D000FB4FA591B4912C912D2381E090E021F436
:1032E00080E002C080E090E0DF91CF9108951F92CE
:1032F0000F920FB60F9211242F938F939F93EF93FA
:10330000FF93E0913E06F0913F068081E0914406F4
:10331000F091450682FD12C09081809147068F5F33
:103320008F7320914806821751F0E0914706F0E034
:10333000E25DF94F958F8093470601C08081FF9130
:10334000EF919F918F912F910F900FBE0F901F9033
:1033500018951F920F920FB60F9211242F933F933F
:103360004F935F936F937F938F939F93AF93BF938D
:10337000EF93FF938EE296E00E94161CFF91EF916F
:10338000BF91AF919F918F917F916F915F914F917D
:103390003F912F910F900FBE0F901F9018958EE2C6
:1033A00096E00E94DB1B21E0892B09F420E0822FAC
:1033B0000895109231061092300688EE93E0A0E056
:1033C000B0E08093320690933306A0933406B09316
:1033D000350681E491E090932F0680932E0685ECCC
:1033E00090E090933B0680933A0684EC90E09093B3
:1033F0003D0680933C0680EC90E090933F068093DE
:103400003E0681EC90E0909341068093400682EC6A
:1034100090E0909343068093420686EC90E0909370
:103420004506809344061092470610924806109273
:10343000490610924A06089508950E94FF170E94B7
:103440001C1A0E94B104C8E0DCE10E94C704209766
:10345000E1F30E94081CF9CFCF92DF92EF92FF9226
:103460000F931F93CF93DF936C017A01EB01E60E6C
:10347000F71E00E010E0CE15DF0561F06991D6017E
:10348000ED91FC910190F081E02DC6010995080FA6
:10349000191FF1CFC801DF91CF911F910F91FF90BC
:1034A000EF90DF90CF9008956115710581F0DB01F9
:1034B0000D900020E9F7AD0141505109461B570B13
:1034C000DC01ED91FC910280F381E02D099480E014
:1034D00090E00895EF92FF920F931F93CF93DF93A5
:1034E0008C01FB01C0E0D0E064917F018FEFE81A0E
:1034F000F80A662361F0D801ED91FC910190F0810A
:10350000E02DC8010995C80FD91FF701EDCFCE01F5
:10351000DF91CF911F910F91FF90EF900895DC0103
:10352000ED91FC910190F081E02D09946CE271E045
:103530000C94541A0F931F93CF93DF93EC010E94C6
:103540006A1A8C01CE010E94961A800F911FDF919A
:10355000CF911F910F9108950F931F93CF93DF93F6
:10356000EC010E94541A8C01CE010E94961A800F21
:10357000911FDF91CF911F910F9108958F929F928C
:10358000AF92BF92CF92DF92EF92FF920F931F9371
:10359000CF93DF93CDB7DEB7A1970FB6F894DEBF18
:1035A0000FBECDBF7C01C42EE52FCB01D22E19A2B8
:1035B00021E02D1510F02AE0D22E8E010F5D1F4F55
:1035C0008D2C912CA12CB12C6C2D7E2FA50194015A
:1035D0000E941F1E8C2DD29E8019112401501109AA
:1035E0008A3014F4805D01C0895CF8018083211564
:1035F00031054105510521F0C22EE32FCA01E4CF68
:10360000B801C7010E94541AA1960FB6F894DEBF04
:103610000FBECDBFDF91CF911F910F91FF90EF9023
:10362000DF90CF90BF90AF909F908F900895CF92F2
:10363000DF92EF92FF920F931F93CF93DF93EC01F2
:103640006A017B012115310579F4E881F981019046
:10365000F081E02D642FDF91CF911F910F91FF90AA
:10366000EF90DF90CF9009942A303105E9F477FF8D
:103670001AC06DE20E948F1A8C0144275527BA01A7
:103680004C195D096E097F092AE0CE010E94BE1A1D
:10369000800F911FDF91CF911F910F91FF90EF90BD
:1036A000DF90CF9008952AE0B701A601CE01DF9107
:1036B000CF911F910F91FF90EF90DF90CF900C94DE
:1036C000BE1A9A01AB01662757FD6095762F0C94C0
:1036D000171B2115310541F4DC01ED91FC9101909E
:1036E000F081E02D642F09940C94BE1A0F931F9360
:1036F000CF93DF93EC019A01462F50E060E070E039
:103700000E94691B8C01CE010E94961A800F911FA6
:10371000DF91CF911F910F9108959A01AB0160E065
:1037200070E00C94691B4F925F926F927F92AF9200
:10373000BF92CF92DF92EF92FF920F931F93CF939E
:10374000DF93CDB7DEB729013A01621B730B840BFF
:10375000950B29893A894B895C892A193B094C09BF
:103760005D09298B3A8B4B8B5C8B9B01AC01698982
:103770007A898B899C890E94DB1DE418F50806096B
:103780001709A80197010E94411E2A0D3B1D4C1DDF
:103790005D1DCA01B901DF91CF911F910F91FF907B
:1037A000EF90DF90CF90BF90AF907F906F905F9041
:1037B0004F9008950895FC01818D228D90E0805CEA
:1037C0009F4F821B91098F7399270895FC01918D5A
:1037D000828D981731F0828DE80FF11D858D90E074
:1037E00008958FEF9FEF0895FC01918D828D9817BA
:1037F00061F0828DDF01A80FB11D5D968C91928DD5
:103800009F5F9F73928F90E008958FEF9FEF0895D1
:103810008FEC99E1892B49F080E090E0892B29F029
:103820000E94CF1981110C9400000895FC01848D31
:10383000DF01A80FB11DA35ABF4F2C91848D90E0DA
:1038400001968F739927848FA689B7892C93A089B5
:10385000B1898C9180648C93938D848D981306C06C
:103860000288F389E02D80818F7D80830895CF9336
:10387000DF93EC01888D8823C9F0EA89FB89808178
:1038800085FD05C0A889B9898C9186FD0FC00FB64A
:1038900007FCF5CF808185FFF2CFA889B9898C918B
:1038A00085FFEDCFCE010E94161CE7CFDF91CF91AF
:1038B0000895CF92DF92FF920F931F93CF93DF93E0
:1038C0001F92CDB7DEB76C0181E0D60158968C937C
:1038D00058975B969C915B975C968C915C9798133C
:1038E00007C05096ED91FC915197808185FD2EC0C7
:1038F000F601038D10E00F5F1F4F0F731127F02E9D
:10390000F601848DF81211C00FB607FCF9CFD6016D
:103910005096ED91FC915197808185FFF1CFC601C2
:1039200069830E94161C6981EBCF838DE80FF11D1E
:10393000E35AFF4F6083D6015B960C935B975296D8
:10394000ED91FC915397808180620CC0D601569610
:10395000ED91FC91579760835096ED91FC915197B2
:1039600080818064808381E090E00F90DF91CF912F
:103970001F910F91FF90DF90CF90089598D088F01D
:103980009F5790F0B92F9927B751A0F0D1F0660F4B
:10399000771F881F991F1AF0BA95C9F712C0B13066
:1039A00081F09FD0B1E008959CC0672F782F8827C1
:1039B000B85F39F0B93FCCF3869577956795B395A5
:1039C000D9F73EF490958095709561957F4F8F4F14
:1039D0009F4F0895E89409C097FB3EF49095809519
:1039E000709561957F4F8F4F9F4F9923A9F0F92FC5
:1039F00096E9BB279395F695879577956795B79543
:103A0000F111F8CFFAF4BB0F11F460FF1BC06F5F28
:103A10007F4F8F4F9F4F16C0882311F096E911C03A
:103A2000772321F09EE8872F762F05C0662371F05B
:103A300096E8862F70E060E02AF09A95660F771F6F
:103A4000881FDAF7880F9695879597F9089597F963
:103A50009F6780E870E060E008959FEF80EC089534
:103A600000240A941616170618060906089500245D
:103A70000A9412161306140605060895092E0394D7
:103A8000000C11F4882352F0BB0F40F4BF2B11F44B
:103A900060FF04C06F5F7F4F8F4F9F4F089557FDAA
:103AA0009058440F551F59F05F3F71F04795880FAC
:103AB00097FB991F61F09F3F79F087950895121643
:103AC00013061406551FF2CF4695F1DF08C01616EF
:103AD00017061806991FF1CF8695710561050894A0
:103AE0000895E894BB2766277727CB0197F90895B7
:103AF0000BD0C4CFB5DF28F0BADF18F0952309F05A
:103B0000A6CFABCF1124EECFCADFA0F3959FD1F3A0
:103B1000950F50E0551F629FF001729FBB27F00D7B
:103B2000B11D639FAA27F00DB11DAA1F649F6627D0
:103B3000B00DA11D661F829F2227B00DA11D621F1F
:103B4000739FB00DA11D621F839FA00D611D221FD9
:103B5000749F3327A00D611D231F849F600D211DBD
:103B6000822F762F6A2F11249F5750408AF0E1F060
:103B700088234AF0EE0FFF1FBB1F661F771F881FA9
:103B800091505040A9F79E3F510570F060CFAACFE9
:103B90005F3FECF3983EDCF3869577956795B79594
:103BA000F795E7959F5FC1F7FE2B880F911D9695BE
:103BB000879597F90895DB018F939F930E94601E6C
:103BC000BF91AF91A29F800D911DA39F900DB29FB9
:103BD000900D11240895991B79E004C0991F961740
:103BE00008F0961B881F7A95C9F780950895AA1B3F
:103BF000BB1B51E107C0AA1FBB1FA617B70710F0D8
:103C0000A61BB70B881F991F5A95A9F78095909509
:103C1000BC01CD01089597FB072E16F4009407D040
:103C200077FD09D00E94F71D07FC05D03EF4909562
:103C300081959F4F0895709561957F4F0895A1E2FA
:103C40001A2EAA1BBB1BFD010DC0AA1FBB1FEE1F16
:103C5000FF1FA217B307E407F50720F0A21BB30B61
:103C6000E40BF50B661F771F881F991F1A9469F7DD
:103C700060957095809590959B01AC01BD01CF0139
:103C80000895052E97FB1EF400940E94581E57FDC0
:103C900007D00E941F1E07FC03D04EF40C94581E40
:103CA00050954095309521953F4F4F4F5F4F089568
:103CB00090958095709561957F4F8F4F9F4F089598
:103CC0000E94711EA59F900DB49F900DA49F800D22
:103CD000911D11240895EE0FFF1F0590F491E02D22
:103CE0000994A29FB001B39FC001A39F700D811DD5
:103CF0001124911DB29F700D811D1124911D0895F5
:103D0000CF93DF938230910510F482E090E0E09150
:103D1000CD06F091CE0620E030E0A0E0B0E0309794
:103D200039F14081518148175907B8F048175907B0
:103D300071F482819381109729F013969C938E934E
:103D400012972CC09093CE068093CD0627C02115E4
:103D5000310531F04217530718F0A901DB0101C00A
:103D6000EF019A01BD01DF010280F381E02DD7CF81
:103D700021153105F9F0281B390B2430310580F469
:103D80008A819B816115710521F0FB0193838283F8
:103D900004C09093CE068093CD06FE01329644C0B7
:103DA000FE01E20FF31F8193919322503109398371
:103DB00028833AC02091CB063091CC06232B41F4C6
:103DC00020910201309103013093CC062093CB0661
:103DD00020910001309101012115310541F42DB7E9
:103DE0003EB74091040150910501241B350BE09131
:103DF000CB06F091CC06E217F307A0F42E1B3F0B85
:103E00002817390778F0AC014E5F5F4F241735074C
:103E100048F04E0F5F1F5093CC064093CB06819322
:103E2000919302C0E0E0F0E0CF01DF91CF910895DF
:103E3000CF93DF93009709F487C0FC013297138278
:103E40001282C091CD06D091CE06209781F42081B8
:103E50003181280F391F8091CB069091CC068217B3
:103E6000930779F5F093CC06E093CB066DC0DE01A5
:103E700020E030E0AE17BF0750F412964D915C91F0
:103E800013979D014115510509F1DA01F3CFB38371
:103E9000A28340815181840F951F8A179B0771F47B
:103EA0008D919C911197840F951F02969183808329
:103EB00012968D919C9113979383828321153105DE
:103EC00029F4F093CE06E093CD063EC0D9011396B7
:103ED000FC93EE9312974D915D91A40FB51FEA17D5
:103EE000FB0779F480819181840F951F0296D90197
:103EF00011969C938E938281938113969C938E93BB
:103F00001297E0E0F0E08A819B81009719F0FE01B2
:103F1000EC01F9CFCE01029628813981820F931FDF
:103F20002091CB063091CC062817390769F43097D9
:103F300029F41092CE061092CD0602C0138212828E
:103F4000D093CC06C093CB06DF91CF910895F99919
:103F5000FECF92BD81BDF89A992780B50895262F8E
:103F6000F999FECF1FBA92BD81BD20BD0FB6F8945E
:0E3F7000FA9AF99A0FBE01960895F894FFCFC1
:103F7E000000CF06800001000000010101014F7515
:103F8E0074206F66206D656D6F72792100000000E0
:103F9E00009E0E2C1A4C4F41444552000D0A006EE5
:103FAE00616E00696E66006F7666002E000000007E
:0E3FBE0000591C2C1ADB1BF41BE61B371C00E1
:00000001FF
