:100000000C9470020C9498020C9498020C94980230
:100010000C9498020C9498020C9498020C949802F8
:100020000C9498020C9498020C9498020C94F0167C
:100030000C9498020C9498020C9498020C949802D8
:100040000C9463170C9498020C947C190C94AE19C0
:100050000C9498020C9498020C9498020C949802B8
:100060000C9498020C949802174D656E750D0A0059
:10007000706F73593A00706F73583A00496E666F2B
:100080000D0A005461696D2032205061656E742143
:100090000047616D62695061696E742C20666F72F1
:1000A000207061696E74696E672C20796B6E6F00C9
:1000B000D400C600B600496E76657274207061691E
:1000C0006E74696E670046696C6C207061696E744D
:1000D000696E6700436C656172207061696E746956
:1000E0006E670019010D01FB00EB0051756974206A
:1000F00047616D62695061696E740043616E76613B
:1001000073206F7065726174696F6E7300536176EE
:100110006520746F20656570004C6F6164206672A5
:100120006F6D2065657000100A3FC0508089009F88
:1001300080B6C0DFA0DFA0908049003FC0100A3F1A
:10014000C04000800080008000800080008000406F
:10015000003FC0100AFF0000803C40664042404221
:100160004066403C400080FF00100A3FC0400083D2
:10017000C0844088809100BE00800040003FC010D5
:100180000A3FC04000844087C084408280A1009E16
:100190000040003FC003053F213F1208120A100A29
:1001A0000E1C0E0C1E0C141A14161F161E131E1EE7
:1001B0001B1E1E1F1E3F213F3A2F3A173D173F219E
:1001C0003F181F02040A041F0E04040E1F0A1F0A10
:1001D0000E0E1F04110E2E252E2F2A2E262929023F
:1001E0001F02081F08150E04040E150E15151B1509
:1001F0001B040604040C04000000001700030003A5
:100200001F0A1F16371A1904130A153A00030000B3
:100210000E11110E000A040A040E0400300004043A
:10022000040010001804031F111F121F101D1517C2
:1002300011151F07041F17151D1F151D01011F1F75
:10024000151F17151F000A00003200040A110A0AC0
:100250000A110A040115020E11171E051E1F150AA8
:100260000E110A1F110E1F15111F05010E111D1F62
:10027000041F111F1108100F1F041B1F10101F0651
:100280001F1E040F0E110E1F09060E112E1F051A38
:10029000121509011F011F101F0F180F1F0C1F1B24
:1002A000041B031C03191513001F11030418111F4D
:1002B000000201022020200001020C121E1F120C5D
:1002C0000C12120C121F0C1A14041E05242A1E1FD5
:1002D000021C141D1020201D1F0814111F101E04C5
:1002E0001E1E021C0C120C3E0A040C123E1E0402BE
:1002F00014160A020F120E101E0E100E1E081E12E9
:100300000C1226281E322A26041E21001F00211E40
:10031000040102013F213F0A4E6F205344206361D4
:100320007264206F720A6E6F204C4F414445522E0A
:100330004845580A0A153A45786974001D20466CEC
:10034000617368696E670A20206C6F616465722E44
:100350002E2E0A0A444F4E2754205455524E204FF9
:10036000464621000A0A153A49676E6F7265006DAC
:10037000560A0A504C45415345205455524E204F81
:10038000464620004C4F5720424154544552592173
:10039000200017534400161378001613140015108C
:1003A000200015201000540A03E181867F3E186D5D
:1003B000830F0F0E0183866033186DC3198F1803E6
:1003C000C38E6033186DE330CF1803C39E603630A0
:1003D000CDE360CF3006C79E7E3E30CDB360CF30D8
:1003E0000CC6F6603330D9B660CF33CFCCF660613F
:1003F000B0DB1E60CF30D86CE6C061B0DB1E618F11
:1004000019986CC6C063B19B0E330F0FB078C6FF4E
:100410007E1F1B061E0F050089300802380249782E
:1004200068140000F6E8DBCFC3B8AEA49B928A82C2
:100430007B746E68625C57524E4945413E3A373490
:10044000312E2C29272523211F1D1C1A191716159B
:1004500014131211100F0E0D0C0B0A090807064594
:10046000006801000005006801380100000500383F
:1004700001680100007D0479040101FF030101F717
:100480000300000008000201000003040700000050
:100490000000000000010204081020408001020456
:1004A00008102001020408102004040404040404B9
:1004B000040202020202020303030303030000001A
:1004C0000023002600290000000000250028002B42
:1004D0000000000000240027002A0000FC07DE19AD
:1004E00011241FBECFEFD8E0DEBFCDBF11E0A0E0EA
:1004F000B1E0E8E8FFE302C005900D92AE34B10729
:10050000D9F726E0AEE4B1E001C01D92AF3CB207DE
:10051000E1F714E0C0EED4E004C02297FE010E948F
:10052000721ECC3DD107C9F70E94221A0C94C21F3B
:100530000C940000DC01643508F053C0403308F02F
:1005400050C090968C919097342F35953595359570
:10055000E62FFF27E7FDF095242F2770823099F4CE
:10056000DF01A15EBB4F84E53802A00DB11D11244F
:100570008C9190E0022E02C0959587950A94E2F73F
:100580008095817009C0833039F446271C968C9180
:10059000482740FF03C014C0811112C084E538020F
:1005A000E00DF11D1124E15EFB4F81E090E0022E91
:1005B00001C0880F0A94EAF780959081982310C0B3
:1005C00084E53802E00DF11D1124E15EFB4F81E06E
:1005D00090E0022E01C0880F0A94EAF79081982BD0
:1005E000908308956F927F928F929F92AF92BF9265
:1005F000CF92DF92EF92FF920F931F93CF93DF93EF
:1006000090E09C012E5F3F4F70E0B0900A0148E1FE
:10061000A42EA29EF001A39EF00D1124DF01A60FCF
:10062000B71FA05BBE4FBC922B5F3F4FA29EA001A5
:10063000A39E500D1124DA01A60FB71FA05BBE4F79
:10064000BC92DC0113969B012F5F3F4FAA9EE001F5
:10065000AB9ED00D1124DE01A20FB31FA05BBE4FD5
:10066000BC928C010A5F1F4FA09E3001A19E700CAE
:100670001124260D371D205B3E4FD901BC929B01F2
:100680002E5F3F4F8F01020F131F005B1E4FD801DB
:10069000BC928E01020F131F005B1E4FD801BC924B
:1006A0007C01B4E0EB0EF11CAE9C8001AF9C100D00
:1006B00011247801E20EF31ED701A05BBE4FBC925D
:1006C0007C01B5E0EB0EF11CAE9C4001AF9C900CA0
:1006D00011247401E20EF31ED701A05BBE4FBC9241
:1006E0007301E20EF31ED701A05BBE4FBC92240F34
:1006F000351F205B3E4FD901BC929B012D5F3F4FC0
:100700006C01BFEFCB1ADB0AAC9C7001AD9CF00C06
:100710001124E20EF31ED701A05BBE4FBC927F01F5
:10072000E20EF31ED701A05BBE4FBC927801E20E31
:10073000F31ED701A05BBE4FBC927401E20EF31E04
:10074000D701A05BBE4FBC927A01E20EF31ED70127
:10075000A05BBE4FBC926C01B8E0CB0ED11CAC9C30
:100760007001AD9CF00C1124E20EF31E9701205B8A
:100770003E4FD901BC929B012C5F3F4FA89E600168
:10078000A99ED00C11247601E20EF31ED701A05BC6
:10079000BE4FBC927F01E20EF31ED701A05BBE4F9D
:1007A000BC927E01E20EF31ED701A05BBE4FBC924D
:1007B0007801E20EF31ED701A05BBE4FBC9274011C
:1007C000E20EF31ED701A05BBE4FBC927301E20E96
:1007D000F31ED701A05BBE4FBC927A01E20EF31E5E
:1007E000D701A05BBE4FBC920996A89E7001A99E3E
:1007F000F00C11242E0D3F1D205B3E4FD901BC9201
:10080000CB0105969601280F391F205B3E4FD90179
:10081000BC929F01280F391F205B3E4FD901BC922B
:100820009E01280F391F205B3E4FD901BC92080F53
:10083000191F005B1E4FD801BC929401280F391F6D
:10084000205B3E4FD901BC929301280F391F205BDA
:100850003E4FD901BC929A01280F391F205B3E4FB1
:10086000D901BC928E0D9F1D805B9E4FDC01BC9216
:10087000CB010696E80FF91FE05BFE4FB082FA014C
:10088000E80FF91FE05BFE4FB082695F7F4FC60F34
:10089000D71FC05BDE4FB882D301A60FB71FA05B86
:1008A000BE4FBC92DF91CF911F910F91FF90EF90BF
:1008B000DF90CF90BF90AF909F908F907F906F9080
:1008C000089520E531E051E080E090E0F901E80F83
:1008D000F91F408145274083019688319105B1F782
:1008E000285E3F4F83E02039380771F7089540E5CF
:1008F00051E020E030E0FA01E20FF31F80832F5F28
:100900003F4F28313105B9F7485E5F4F93E04039DA
:10091000590779F7089543E060EB70E087E993E0C9
:100920000E94BF10813029F0823031F0811106C061
:1009300001C081E00C9477040C946104089580E078
:1009400090E00E94851E009751F02DB73EB7AC0194
:100950004C595F4F4217530710F40C941D1F6EE063
:1009600071E08EE296E00E94B11AFFCF80E00E9413
:10097000770487E993E00E94111461E970E087E948
:1009800093E00E94941348E263E870E087E993E003
:100990000E94DB0E0C949F04EF92FF920F931F9323
:1009A000CF93DF931F92CDB7DEB787E993E00E9424
:1009B0000510882309F4CAC240E060E085EE93E0A8
:1009C0000E949A024FE260E085EE93E00E949A0254
:1009D00040E063E585EE93E00E949A024FE263E512
:1009E00085EE93E00E949A0261E081EA93E00E9422
:1009F0002F09882321F081E08093960308C061E0ED
:100A000081EA93E00E94380981111092960363E015
:100A100081EA93E00E942F09882321F081E08093EE
:100A2000950308C063E081EA93E00E9438098111D0
:100A30001092950360E081EA93E00E942F098823D9
:100A400021F081E08093940308C060E081EA93E0A4
:100A50000E94380981111092940362E081EA93E0C8
:100A60000E942F09882321F081E08093930308C01E
:100A700062E081EA93E00E943809811110929303A9
:100A800064E081EA93E00E942F09882321F081E04D
:100A90008093920308C064E081EA93E00E943809E1
:100AA00081111092920365E081EA93E00E942F0980
:100AB000882331F080910B0191E0892780930B010D
:100AC00090919603992329F080919003815080930F
:100AD000900380919503882329F0809190038F5F84
:100AE0008093900320919403222329F08091910315
:100AF00081508093910380919303882329F0809102
:100B000091038F5F8093910380919103843510F05E
:100B10001092910380919103811105C0222319F055
:100B200083E58093910380919003803310F01092BD
:100B3000900380919003811105C0992319F08FE2F1
:100B40008093900364E081EA93E00E942F09882358
:100B5000A1F0809191038454863078F480919003C1
:100B60009CEF980F963020F481E080930A0105C035
:100B70008F50863010F410920A0164E081EA93E00D
:100B80000E942F09882369F18091910394EF980FB7
:100B9000963080F48091900393EE980F963018F47D
:100BA00010924F0113C088528630D8F410924F0132
:100BB00081E015C081528630A0F48091900393EEBD
:100BC000980F963030F481E080934F0110924E01DF
:100BD00008C08852863028F481E080934F018093CA
:100BE0004E010AE12AE140E06DE185EE93E00E94CA
:100BF000230A00E511E02EE1E12CF12CF801EE0DC5
:100C0000FF1D8081882349F041E04E0D622F85EE63
:100C100093E029830E949A0229818FEFE81AF80A4B
:100C2000E8E1EE16F10451F7085E1F4F2F5F2633FF
:100C300019F78091910393EE980F993108F0B2C0A3
:100C4000709190036FEF670F683108F0ABC090911F
:100C50009203992309F4A6C010914F0190914E017F
:100C6000112311F091112BC0282F30E02E513109A2
:100C700048E1429FF001439FF00D1124E05BFE4FDD
:100C8000E70FF11D319720910A012083111117C040
:100C9000992309F487C07831B9F0282F30E02E511C
:100CA000310948E1429FF001439FF00D1124E70F05
:100CB000F11DE05BFE4F20910A01208305C09923BE
:100CC00051F3911166C020C08533D9F0282F30E050
:100CD0002D513109472F50E000910A01A8E1A29F50
:100CE000F001A39FF00D1124DA01AE0FBF1FA15B2D
:100CF000BE4F0C93783129F0E40FF51FE05BFE4FF7
:100D000000831111DECF4EC0773188F4282F30E0F8
:100D10002E51310998E1929FF001939FF00D11241B
:100D2000E05BFE4FE70FF11D90910A019183843340
:100D3000C8F590E0AC014C515109272F30E060918B
:100D40000A0118E1149FF001159FF00D1124D9013B
:100D5000AE0FBF1FA15BBE4F6C93773118F5A90191
:100D60004F5F5F4FDF01A40FB51FA05BBE4F6C93B9
:100D70004D97189FD001199FB00D1124A40FB51FD6
:100D8000A05BBE4F6C93E20FF31FE05BFE4F6083EE
:100D900009C0613138F48D3228F48D3119F08E514B
:100DA0000E94F20280910B01882359F181E0809327
:100DB000EE036CE770E085EE93E00E946F1A66E741
:100DC00070E085EE93E00E946F1A4AE050E0609177
:100DD000910385EE93E00E947B1B60E770E085EE57
:100DE00093E00E946F1A4AE050E06091900385EE14
:100DF00093E00E947B1B68E670E085EE93E00E9422
:100E00006F1A409190036091910385EE93E00E94E8
:100E10009A022FE731E042E069E385EE93E00E9419
:100E2000F30B23E531E042E063E485EE93E00E94BA
:100E3000F30B29E631E04DE069E385EE93E00E9493
:100E4000F30B23E531E04DE063E485EE93E00E948F
:100E5000F30B2DE331E04BE161E085EE93E00E947E
:100E6000F30B23E531E04BE16BE085EE93E00E946C
:100E7000F30B41E264E085EE93E00E949A022DE3D9
:100E800031E046E261E085EE93E00E94F30B23E55A
:100E900031E046E26BE085EE93E00E94F30B02E066
:100EA00022E04BE264E085EE93E00E944B0A2DE3E2
:100EB00031E04BE166E185EE93E00E94F30B23E520
:100EC00031E04BE160E285EE93E00E94F30B03E03A
:100ED00023E04FE169E185EE93E00E944B0A27E2AF
:100EE00031E046E266E185EE93E00E94F30B23E5F4
:100EF00031E046E260E285EE93E00E94F30B8091E0
:100F00000A0102E022E0882311F046E001C041E13D
:100F100066E485EE93E00E944B0A90914F01809128
:100F20004E0102E022E0911107C0811102C04FE1A1
:100F300001C04AE26EE006C0811102C04FE101C06B
:100F40004AE263E285EE93E00E944B0A66E081EAA2
:100F500093E00E942F09882309F445C044E063EE22
:100F600070E087E993E00E94BF10813001F13CF40A
:100F7000811139C000E511E0E12CF12C09C082306B
:100F800081F1833081F587E993E00E9411122BC033
:100F9000C7010E94AC1FF80181938F01FFEFEF1A88
:100FA000FF0A80E4E81682E0F80691F71CC000E52D
:100FB00011E0E12CF12CF80161918F01C7016983E7
:100FC0000E94AC1F6981681719F0C7010E94B41F05
:100FD000FFEFEF1AFF0A80E4E81682E0F80659F7FF
:100FE00002C00E948B040F90DF91CF911F910F914F
:100FF000FF90EF900C949F041092E8031092E70387
:1010000081E291E09093E6038093E5030895CF9306
:10101000CFB7F89480911E04811127C0E3EBF4E070
:101020008491EFE9F4E09491E82FF0E0EE0FFF1FD8
:10103000EF52FB4FA591B4918C91892321F461E08B
:101040008AE00E941D1961E08AE00E94E4188CB5D4
:1010500080618CBD8CB580648CBD61E08DE00E94A8
:10106000E41861E08BE00E94E41880911E048F5F19
:1010700080931E04CFBFCF91089521E0FC0120830F
:10108000089570E085E00C945C18AF92BF92CF9207
:10109000DF92EF92FF920F931F93CF93DF93EC01B8
:1010A00089819A812FE0289F8001299F100D1124AA
:1010B00085E10E943F18800F911F24E09695879547
:1010C0002A95E1F79A8389832881222391F1AC81C3
:1010D000AD80B12CC12CD12CE885F9857F0100E0D1
:1010E00010E06E817F819B0140E050E086179707FA
:1010F00028F0BC01E817F90708F4BF0180E090E090
:101100001F921F921F92AF930E94981B6B830F90A8
:101110000F900F900F9070E085E0DF91CF911F91BD
:101120000F91FF90EF90DF90CF90BF90AF900C9415
:101130005C18DF91CF911F910F91FF90EF90DF909E
:10114000CF90BF90AF900895FC018CE39FE0938314
:10115000828384E0818381E084870895CF93DF9345
:10116000EC018C819D81892B81F18C858F7151F5EA
:1011700084E10E943F18BC01882777FD8095982F55
:101180000E94F11C26EE3FE34EEC50E40E947D1DD0
:101190000E94C31C9B017B836A836115710581F0EA
:1011A00084E08983FE0140E0848195812817390716
:1011B00010F449830AC04F5F32964430A9F702C049
:1011C0008FEF89838C858F5F8C87DF91CF91089516
:1011D000FC0188E0808389E0818387E0828386E068
:1011E000838384E0848382E0858381E1868308951C
:1011F000DF92EF92FF920F931F93CF93DF937C01C7
:10120000EC0100E010E0DD24DA9462E088810E94C5
:10121000E41888810E945319F701E00FF11F892B10
:1012200021F487818F5F878308C08781882349F0F5
:101230008F3F11F4178201C0D78260E088810E943D
:10124000E4180F5F1F4F219607301105F1F6DF916B
:10125000CF911F910F91FF90EF90DF900895FC01C7
:10126000E60FF11D81E09781913009F080E008954B
:10127000FC01E60FF11D81E097819F3F09F080E0BE
:101280000895262F30E0FC01E20FF31F87814230E2
:1012900028F481508E3F48F080E008958F3FE1F3BD
:1012A000642F0E94F01D9130B9F781E008958EBD42
:1012B00000000DB407FEFDCF8EB508951F93CF93A8
:1012C000DF93EC01162FF89460E08F850E941D19C2
:1012D000888918161CF460E00E941D19812F0E9455
:1012E0005709888918161CF461E00E941D1978942A
:1012F000DF91CF911F91089528EF31E0EFE1F4E005
:10130000DF01A9011D9241505040E1F7DC0119961F
:101310001C9219971A961C920895DF92EF92FF92F1
:101320000F931F93CF93DF93EC018C858F5F8C8796
:101330008FE1E82E84E0F82ED12C6D2D6064CE0173
:101340000E945E0960E8CE010E945E0961E08F851F
:101350000E941D19888918161CF460E00E941D194E
:1013600000E010E0F701E00FF11F80810E945709B3
:101370000F5F1F4F04351105A9F7888918161CF453
:1013800061E00E941D19D39484E5E80EF11C86E00B
:10139000D812D3CF60E4CE01DF91CF911F910F918E
:1013A000FF90EF90DF900C945E09FC0160A361A3B5
:1013B0000895FC0160A341A30895CF92DF92FF92AC
:1013C0000F931F93CF93DF931F92CDB7DEB76C01BE
:1013D000062FF42E10E0121754F4412F4F0D602FFA
:1013E000C60129830E949A021F5F2981F4CF0F90C2
:1013F000DF91CF911F910F91FF90DF90CF900895D3
:10140000CF92DF92FF920F931F93CF93DF931F92A0
:10141000CDB7DEB76C01062FF42E10E0121754F48E
:10142000612F600F4F2DC60129830E949A021F5F12
:101430002981F4CF0F90DF91CF911F910F91FF90F1
:10144000DF90CF900895EF92FF920F931F93CF9369
:10145000DF93EC01F62E142FE22E0E94000A4FEFCC
:10146000400F410F2E2D6F2DCE010E94000A202F1C
:10147000412F6F2DCE010E94DD096FEF6E0D6F0DB4
:10148000202F412FCE01DF91CF911F910F91FF901F
:10149000EF900C94DD09DF92EF92FF920F931F9370
:1014A000CF93DF93EC01E62ED22EF42E112707FD09
:1014B0001095040F111D47FD1A958F2D992787FD53
:1014C00090958017910744F42D2D4F2D6E2DCE0150
:1014D0000E94000AF394F1CFDF91CF911F910F91F9
:1014E000FF90EF90DF9008958F929F92AF92BF92FE
:1014F000CF92DF92EF92FF920F931F93CF93DF93E0
:10150000EC01E62ED42E122FCC24C394C21AB22E94
:10151000B194BB0CF12C802F8470A82E802F827088
:10152000982E802F8870882E0170F1160CF04DC017
:10153000C7FC04C01150B394B394CB0CF3948F2D1B
:10154000880F8F5FC80EAA2071F0412F4D0D6F2DAF
:101550006E0DCE010E949A024F2D4D0D612F6E0D22
:10156000CE010E949A02992071F04D2D411B6F2DE2
:101570006E0DCE010E949A024D2D4F19612F6E0DF6
:10158000CE010E949A02882071F04F2D4D0D6E2DD4
:10159000611BCE010E949A02412F4D0D6E2D6F19D5
:1015A000CE010E949A02002309F4BFCF4D2D4F199E
:1015B0006E2D611BCE010E949A024D2D411B6E2D96
:1015C0006F19CE010E949A02B0CFDF91CF911F9187
:1015D0000F91FF90EF90DF90CF90BF90AF909F90D2
:1015E0008F9008958F929F92AF92BF92CF92DF9289
:1015F000EF92FF920F931F93CF93DF93EC01B62EE0
:10160000A42E122FDD24D394D21AC22EC194CC0C56
:10161000FF24F394802F8170882E992493949E0C3C
:1016200002708FEF8F0D8117C4F5D7FC04C01150E5
:10163000C394C394DC0C8F2D880F8F5FD80E882045
:1016400099F0212F220F290D4A2D411B6F2D6B0D73
:10165000CE010E94DD0923E02E0D4A2D4F19612F86
:101660006B0DCE010E94DD09002399F0212F220F7E
:10167000290D4A2D411B6B2D6F19CE010E94DD09EA
:1016800023E02E0D4A2D4F196B2D611BCE010E94B8
:10169000DD09F394E394E394C4CFDF91CF911F91DC
:1016A0000F91FF90EF90DF90CF90BF90AF909F9001
:1016B0008F9008959F92AF92BF92CF92DF92EF9258
:1016C000FF920F931F93CF93DF93EC01B62EF42E6E
:1016D000A22EDE2CD194DD0C9D2C920E1E2D160F09
:1016E000292D612F0E94000ACC24CA94C00ECF0C71
:1016F000292D4C2D612FCE010E94000AD00EFE0C28
:101700002D2D4F2D6B2DCE010E94DD09BA0C6FEFF0
:101710006B0D2D2D4F2DCE010E94DD0901E02E2DE8
:101720004F2D612FCE010E94740ADE2CD094DB0C69
:1017300002E02E2D4F2D6D2DCE010E94740ACE1881
:1017400004E02E2D4C2D6D2DCE010E94740A08E070
:101750002E2D4C2D612FCE010E94740ADF91CF9166
:101760001F910F91FF90EF90DF90CF90BF90AF90BF
:101770009F900895AF92BF92CF92DF92EF92FF9227
:101780000F931F93CF93DF93EC01A62EC42EB22E9E
:10179000F02E1E2DE194EE0CD12ED60E2E2D2B0DFB
:1017A0006D2D0E944B0AFA94FE0CC10E6FEF6A0D6C
:1017B0006B0D611BEF2C01E0212F4C2DCE010E94FF
:1017C000F20A02E0212F4C2D6D2DCE010E94F20A6B
:1017D000DF91CF911F910F91FF90EF90DF90CF900D
:1017E000BF90AF9008956F927F928F929F92AF9229
:1017F000BF92CF92DF92EF92FF920F931F93CF93FE
:10180000DF93F901A49031965491FC01F0A0643566
:101810000CF00CC1BB24A7FCB094A62FBB27A7FDDE
:10182000B095FD01EA0DFB1D1E161F060CF0FEC053
:1018300040330CF0FBC0C52E042F112707FD109577
:10184000E801C50FD11D57FDDA951C161D060CF0D9
:10185000EDC0E90122969501295F3F4F37FF02C095
:10186000295F3F4F73E0359527957A95E1F747FF5C
:101870000AC0C52EC40E209FA001219F500D112427
:10188000C41BD50B40E00C2D112707FD1095040F4C
:10189000111D47FD1A95013311051CF070E3C72E89
:1018A000C41A67FD60E0E535F10514F0E4E5F0E009
:1018B0001E2FFC0174857427862F992787FD90952C
:1018C000FC01EA1BFB0BDF015F01F7E0AF22BB2449
:1018D000E0E8F0E002C0F595E795AA94E2F70E2F54
:1018E000B7FD179653E0B595A7955A95E1F7AC0F5C
:1018F000BD1FE42FE77051E001C0550FEA95EAF7EC
:10190000459545954595E4E54E02800D911D1124C0
:10191000815E9B4F40E0DD24C7FCD094BB24B39490
:101920003327E42FF0E0EC15FD050CF07FC0FD013E
:10193000E490F1E0FF1219C0EC01A02EFD01862E0B
:10194000881A9C2E980C911608F067C09E2C9A203D
:1019500019F09880952A9882A69429F43196E490FB
:101960006894AA24A7F82196ECCFF1101BC0752E1D
:101970007094EC01A02EFD01862E881A9C2E980CE6
:10198000911608F04AC09E2C9A2019F09880972052
:101990009882A69429F43196E4906894AA24A7F832
:1019A0002196ECCFE3E0FE1631F0EC01A02EFD0114
:1019B000862E881A2EC0752E7094962EEC01A02EBD
:1019C000FD019116B0F48E2C8A2049F08880692C94
:1019D000672660FE02C0852A01C087208882A694FF
:1019E00029F43196E4906894AA24A7F89394219658
:1019F000E8CF7B2512C09E2C9A2019F0988095265E
:101A00009882A69429F43196E4906894AA24A7F8C1
:101A100021969C2E980C911670F3550F19F48C5A40
:101A20009F4F51E04F5FA20FB31F7BCFDF91CF914C
:101A30001F910F91FF90EF90DF90CF90BF90AF90EC
:101A40009F908F907F906F900895DC01FB018491AF
:101A50008F5F14968C9314973196E491EF5F1596EF
:101A6000EC9315976E5F7F4F5F967C936E935E97B6
:101A70000895EF920F93CF93DF93EC014E876D871C
:101A80002F87E98A088B81E0888788A319A28F8332
:101A900065E971E0CE010E94250D0E9407088CB512
:101AA0008F7D8CBD8CB58C7F81608CBD8DB5816048
:101AB0008DBD8CB58C608CBD61E08E850E94E41874
:101AC00061E08D850E94E41861E08F850E94E41832
:101AD000898918161CF461E00E94E4188889181698
:101AE0001CF461E00E94E418898918166CF460E027
:101AF0000E941D196AE070E080E090E00E94DC170F
:101B000061E089890E941D198D85992787FD90952F
:101B1000FC01E755FB4FE491F0E0EE0FFF1FE953A6
:101B2000FB4F259134913D8B2C8BFC01EB56FB4FE9
:101B300084918B8F8E85992787FD9095FC01E755C1
:101B4000FB4FE491F0E0EE0FFF1FE953FB4F2591AF
:101B500034913B8B2A8BFC01EB56FB4F84918A8F8F
:101B60008889992787FD9095FC01E755FB4FE49103
:101B7000F0E0EE0FFF1FE953FB4F259134913F8BAF
:101B80002E8BFC01EB56FB4F84918C8F8F85992710
:101B900087FD9095FC01E755FB4FE491F0E0EE0FD7
:101BA000FF1FE953FB4F25913491398F288FFC019A
:101BB000EB56FB4F84918D8F61E2CE010E945E094E
:101BC00064E1CE010E945E098B8587FF02C08FE72A
:101BD0008B876B856068CE010E945E0960E2CE0152
:101BE0000E945E096CE0CE010E945E09CE01DF9189
:101BF000CF910F91EF900C948D096F927F928F92FD
:101C00009F92AF92BF92CF92DF92EF92FF920F938B
:101C10001F93CF93DF93EC01162FF42EB02EE8A084
:101C200064350CF081C08FE284170CF47DC0EC8128
:101C3000F0E031970E9FC0010F9F900D1124860F89
:101C4000911D67FD9A95181619060CF06DC08D81CF
:101C5000809FC0011124840F911D47FD9A9518168D
:101C600019060CF061C0A62E962EC22ED12C8A2DFC
:101C7000811B992787FD90952C8130E0821793076F
:101C80000CF051C0215031098217930779F0C29EA0
:101C9000D001C39EB00DD29EB00D1124A80FB91F64
:101CA000EE8DFF8DEA0FFB1F749001C0712C8F2CFD
:101CB0006F2C282D2F19332727FD30958D8190E02B
:101CC000281739076CF570FE11C081E0B81206C004
:101CD000482D6A2DCE010E949A021EC00B2D2B2D7D
:101CE000462D692DCE010E944B0A16C089A198A1EC
:101CF000891791F088A381E0B81206C0482D6A2D9B
:101D0000CE010E949A0207C00B2D2B2D462D692D66
:101D1000CE010E944B0AE8A276946B0C8394C9CF43
:101D20009B0CA394A4CFE8A2DF91CF911F910F91B8
:101D3000FF90EF90DF90CF90BF90AF909F908F90EB
:101D40007F906F9008950F93CF93DF93EC01262F30
:101D50006A3039F42D8198858A85299F800D112458
:101D600022C06D3011F108854A8569850E94FD0DFC
:101D700048855C812985549F200D112429878F81F6
:101D8000882399F0332727FD309584E590E0459F1F
:101D9000801991091124821793073CF49D818A854B
:101DA000499F800D11248A87198681E090E0DF9198
:101DB000CF910F910895FC01EC57FF4F7183608321
:101DC0003296445F408308958F929F92AF92BF9264
:101DD000CF92DF92EF92FF920F931F93CF93DF93F7
:101DE000EC015C0186E8A80EB11CD5018C9188231A
:101DF00009F44DC08C3018F41CE0181B01C010E031
:101E0000FE01EA5AFF4F81E080836E01BEE4CB0EF3
:101E1000D11C60E0C6010E94D5094E01E3E58E0E9B
:101E2000911CD4018C9103E0080F9DE2F92E4F2DF7
:101E3000481B410F23E0E22E24E560E0C6010E942A
:101E4000BA0B61E0C6010E94D509F401808103E06C
:101E5000080F4F2D481B410F24E560E0C6010E948A
:101E60005A0BFE01E95AFF4F84E080833196D4017A
:101E70008C91181B115D1083CC57DF4F68817981DD
:101E8000C6010E946F1AF501808181508083DF9125
:101E9000CF911F910F91FF90EF90DF90CF90BF9067
:101EA000AF909F908F900895DF92EF92FF920F93E3
:101EB0001F93CF93DF93EC018C8D9D8D892B09F4BB
:101EC0009CC08E01025B1F4F40E061E0C8010E9490
:101ED000D90985E5FE01EE5AFF4F9081891B3596A1
:101EE000808331961082698D613009F462C028F0D8
:101EF000888D653008F074C06FC0CE0185960E9451
:101F0000961581E0FE01EA5AFF4F808365E971E092
:101F1000C8010E94250D1D8E1C8EFE01EC5AFF4F3C
:101F2000108238EAD32E7E018AE0E80EF11CCE0141
:101F30000E9405108823D9F364E873E0C8010E9469
:101F40006F1A6A8D7B8D4AE050E0C8010E94921B97
:101F50006FE673E0C8010E946F1A6D2D62956F7075
:101F600070E04AE050E0C8010E94661B64E673E03E
:101F7000C8010E946F1A64E0C7010E942F098111F5
:101F80003CC0DA94A1F660E0CE010E94410883B71C
:101F9000817F846083BF83B7816083BF83B78160A3
:101FA00083BF889583B78E7F83BF83B78E7F83BFC0
:101FB000BECFCF58DF4F488159816A817B814F70F6
:101FC000552766277727483051056105710510F4BC
:101FD00067E009C068E707C0882379F06B5F03C03A
:101FE000882359F06FE2C801DF91CF911F910F91C3
:101FF000FF90EF90DF900C94941ADF91CF911F9196
:102000000F91FF90EF90DF9008958F929F92AF9283
:10201000BF92EF92FF920F931F93CF93DF93EC0148
:102020007C0100E8E00EF11CF70180809180A28025
:10203000B3800E94AD1795018401061B170B280B76
:10204000390BB901A8015E011FE7A10EB11CF50112
:10205000808190E0A0E0B0E08E0105581F4F84170A
:102060009507A607B70750F4F80180819181A281F6
:10207000B381892B8A2B8B2B09F040C0F80180811A
:102080009181A281B381892B8A2B8B2BA9F57E01AB
:10209000F5E2EF0EF11CC7010E949315C7010E94E3
:1020A0000016C7010E94C416CE010E94E40ECE01A4
:1020B0000E94540F7E012EE4E20EF11CC7010E9423
:1020C0008D09FE01EC5AFF4F8081811103C0C701C9
:1020D0000E947C090E94B917F80160837183828392
:1020E0009383FE01EB58FF4FC958DF4F2881398198
:1020F000621B730B7183608380E036C00E94AD1752
:10210000F5012081620F711D811D911DF701608312
:10211000718382839383FE01EF58FF4F4081518189
:10212000628173814F5F5F4F6F4F7F4F4083518359
:1021300062837383F80110821182128213820E94DB
:10214000B917FE01E958FF4F60837183828393833F
:10215000CE010E944508CE010A960E94F808CE01E1
:1021600048960E94AE0881E0DF91CF911F910F91B8
:10217000FF90EF90BF90AF909F908F9008952F9217
:102180003F924F925F926F927F928F929F92AF9207
:10219000BF92CF92DF92EF92FF920F931F93CF9354
:1021A000DF93CDB7DEB766970FB6F894DEBF0FBEEC
:1021B000CDBF9E8B8D8B6F87788B942EFC01EC5A54
:1021C000FF4F108288248A941C82A12C30E33B8329
:1021D000B12C6C018AE0C80ED11C6D887E8893E515
:1021E000690E711CED89FE89B5962F01242F30E010
:1021F0003A8729878D899E89895A9F4F9E838D832F
:10220000ED89FE89E85AFF4FF887EF832D893E89D3
:102210002A5A3F4F3C872B878D899E898B5A9F4F27
:102220009E878D87ED89FE89E25BFF4F1F018D89B7
:102230009E890E9405108823D1F364E0C6010E94A4
:102240002F093B81032F112707FD109581113EC0F7
:1022500065E0C6010E942F09811138C066E0C60101
:102260000E942F09811132C03C81311142C044E0EB
:1022700063E0C6010E944109882321F0B394C201A2
:102280000E94401744E061E0C6010E944109882392
:1022900021F0BA94C2010E9440178B2D992787FD27
:1022A0009095E985FA858E179F0731F0B7FE05C036
:1022B000BB24BA94B90C01C0B12CF301808174E045
:1022C000A72EA80E8B9DA01811241DC0F301A0807D
:1022D00064E0C6010E942F09882309F484C0C2016A
:1022E0000E9414178B2CA194A99CA02C1124AA94B1
:1022F000AA94C8018A199109A7FC939502970CF436
:1023000076C031E03C830A0D111DA7FC1A9517FF1A
:1023100002C00F5F1F4FC801959587959A838983E7
:1023200029812B83ED81FE811082EF81F8858083E6
:1023300081E0EB85FC858083ED85FE8510820F852D
:102340001889E12CF12C4B2D552747FD509533E092
:10235000E91420F5E416F50669F4ED81FE81308379
:10236000F3018081F22FB89EF00D11248F2FEF81A1
:10237000F8858083F80165917491C101298B3C8BAC
:102380004A8B5B8B0E949F1AFFEFEF1AFF0A0E5FCA
:102390001F4F5B894A893C892989DACF60E0C101F6
:1023A0000E94D509F30180814981B89E400D112416
:1023B000415024E560E0C1010E94000A61E0C101D2
:1023C0000E94D509F301808103E0080F4981B89E7E
:1023D000400D1124425053E0E52E24E560E0C10198
:1023E0000E945A0B24CFC2010E942A177CCF882D4D
:1023F00066960FB6F894DEBF0FBECDBFDF91CF91CA
:102400001F910F91FF90EF90DF90CF90BF90AF9012
:102410009F908F907F906F905F904F903F902F9004
:1024200008950F931F93CF93DF938C01EC01C25B50
:10243000DF4FCE010E947C096CE373E0CE010E9465
:102440006F1ACE010E948D098CB583608CBD8DB54D
:102450008E7F8DBD85E291E0EEEFFFE30995F801F7
:10246000EC5AFF4F108267E173E0CE010E949F1A81
:10247000CE010E948D09065F1F4FC8010E94F80817
:1024800064E0C8010E942F09811107C062E370E077
:1024900080E090E00E94DC17F0CFDF91CF911F9198
:1024A0000F9108952F923F924F925F926F927F9279
:1024B0008F929F92AF92BF92CF92DF92EF92FF9254
:1024C0000F931F93CF93DF93CDB7DEB729970FB646
:1024D000F894DEBF0FBECDBF998788871B012A0104
:1024E0003C0180E7680E711CF3018081882309F4A8
:1024F00002C181E0E885F985EA5AFF4F8083E885CB
:10250000F985EB5AFF4F1082E885F985EC5AFF4FA9
:102510001082E885F985108E8F01025B1F4F61E004
:10252000C8010E94D509888599858D5A9F4F9C8343
:102530008B83C884D98497E5C90ED11CE884F984BB
:10254000E8E5EE0EF11C888599858E5A9F4F9A8397
:102550008983E885F985EF58FF4FFE83ED838884F2
:102560009984FAE08F0E911CA884B98485E2A80EA4
:10257000B11C888599850E9405108823D1F3F1014B
:102580008491882321F0EB81FC81508101C050E0CF
:1025900026EA33E040E060E0C8015F830E94F30B6D
:1025A0005F814114510439F04CE0450F920160E025
:1025B000C8010E94F30BF60110828CE0F7018083C2
:1025C000B101C8010E946F1AE981FA819081892FB7
:1025D000880F890F81958D5AF6018083EB81FC81EC
:1025E0009081892F880F890F8195835DF701808302
:1025F000ED81FE81808184FF03C062EA73E002C046
:102600006EE973E0C8010E949F1AE981FA81908106
:10261000892F880F890F81958D5AF6018083F701E4
:1026200080818F5F8083E885F98582A5882319F0F2
:102630006AE973E002C066E973E0C8010E949F1A6C
:10264000E981FA819081892F880F890F81958D5AB0
:10265000F6018083F70180818F5F808362E973E0F8
:10266000C8010E949F1A65E0C4010E942F098823B7
:1026700051F0E885F98562A56F5FC5010E94561784
:10268000C5010E94401764E0C4010E942F09811116
:1026900013C0F3012081822F90E0A0E0B0E0ED8133
:1026A000FE814081518162817381481759076A0711
:1026B0007B07A8F02F3F99F08FEFF3018083088507
:1026C00019850B5D1F4F60E0C8010E943D15C801D0
:1026D0000E94141781E0E885F985808F0CC066E0C0
:1026E000C4010E942F09882309F443CF8885998566
:1026F0000E94111234CF29960FB6F894DEBF0FBE98
:10270000CDBFDF91CF911F910F91FF90EF90DF90A0
:10271000CF90BF90AF909F908F907F906F905F9081
:102720004F903F902F90089540E050E00C9452124B
:10273000E0E8F7E72591349181E02130304C09F051
:1027400080E00895CF93DF93EC010E9498139E01DF
:10275000275A3F4FDE01A059BF4F882309F43CC0E0
:10276000E6E9F7E78491F9018083E7E9F7E7E49187
:10277000EC83E8E9F7E7E491ED83E9E9F7E7859190
:1027800094919F838E83EBE9F7E7859194919987E4
:102790008887EDE9F7E7E491EBA7EEE9F7E7E49145
:1027A000EAA7EFE9F7E7E491EC93E0EAF7E7859130
:1027B00094919D8F8C8FE2EAF7E7859194919F8F9A
:1027C0008E8FE4EAF7E78591949199A388A3E6EACE
:1027D000F7E78591949120C08CE3F90180831C82F6
:1027E0002FEF2D8380E293E09F838E8384ED93E02F
:1027F0009987888781E08BA78AA72C938CEA9DE034
:102800009D8F8C8F8EED9DE09F8F8E8F84E79EE055
:1028100099A388A38CE39FE09BA38AA3DF91CF9128
:102820000895CF92DF92EF920F93CF93DF93EC0155
:10283000FC01E158FF4F82E38083349741E050E090
:1028400060E070E040835183628373833B978FEF36
:102850008083CE010E94A213CE010E943D086FEF3B
:10286000CE010E9441086E018AE0C80ED11CC6014B
:102870000E94E808C6010E94F808CE0148960E940E
:10288000A4083EE0E32E0FE020E14BE06DE0CE0136
:10289000825B9F4F0E94390DA596CE010E94A9141C
:1028A00065E0C6010E942F09882351F060E0CE0147
:1028B000DF91CF910F91EF90DF90CF900C9456174E
:1028C00040E066E174E0CE01DF91CF910F91EF908F
:1028D000DF90CF900C944815CF93DF9350E0FA012E
:1028E000EE0FFF1FE80FF91F37852089E32FF22F26
:1028F000E60FF11DE60FF11D25913491FA01EE0F5F
:10290000FF1FE80FF91F30A3278FF901659174911C
:10291000FC01D481D69FC02D1124E40FF51FC1A363
:10292000F901A591B4916B2F70E0EC2FF0E0DC0180
:10293000A40FB51F6E177F0720F4F901259134917C
:10294000C32FCD9FC02D11249296CC93DF91CF91B0
:10295000089521E0FC01248324E020A725E734E04A
:10296000308B278740E060E00E946C1461E070E0EB
:1029700083E00E945C18E1EBF0E08081887F816059
:102980008083F89410928000E1E8F0E010821092C9
:1029900085001092840088E191E0909389008093F3
:1029A0008800808188608083808181608083EFE6F9
:1029B000F0E0808182608083789408950F93FC0119
:1029C000862F642F011129C08230D1F048F488236A
:1029D00091F0813011F540E0CF010F910C946C140F
:1029E0008330A9F08430C9F48481489F602D11247C
:1029F000658F268F12C04B3008F06AE0668B0DC0E1
:102A00008481489F602D1124618F228F06C08481AC
:102A1000489F602D1124638F248F0F910895FC012E
:102A200021110EC0648B8481489F402D1124458B59
:102A300015A214A213A281E0878B80932306108E27
:102A4000089580912306882319F08091200601C003
:102A500080E08093B4000895FC0161110DC0178AD5
:102A6000158A14A213A2108E10922006109221062D
:102A7000109223060C9421150895CF93DF93EC0157
:102A8000611103C00E942C151982DF91CF91089526
:102A90000F931F93CF93DF93EC018B0141110EC075
:102AA00060E00E943D151E870D871B8A1A8A81E00F
:102AB000898389E08E8B198E1B8E1D8EDF91CF91BD
:102AC0001F910F910895CF93DF93EC01611128C0FE
:102AD0008881882329F18981811122C089852F81EC
:102AE0009885E22FF92FE80FF11DE80FF11D859170
:102AF00094918F3F2FEF920711F4188211C09C8799
:102B00009927880F991FEA85FB85E80FF91F6591C2
:102B1000749140E0CE010E94481589858F5F8987B6
:102B2000DF91CF91089560E00C94631560E00C9400
:102B30003D150F93CF93DF93EC0161115DC0898147
:102B4000882309F459C08D89811156C02D853E8591
:102B50008A899B89880F991F820F931FFC01859199
:102B600094910097D1F48989882321F01B8A1A8ACD
:102B7000F90111C01982888160E0882331F0CE010B
:102B80000E9463158A899B8925C0CE01DF91CF9170
:102B90000F910C942C1585919491BC0176956795B5
:102BA0007695679580FF1DC0AC01A6E056954795C8
:102BB000AA95E1F7292F26952695269520514F7144
:102BC0006F7000E0CE010E94DE148A899B89019615
:102BD0009B8B8A8B880F991FED85FE85E80FF91F67
:102BE000DACF492F6F7320E0CE010E940F158A893A
:102BF0009B8901969B8B8A8BDF91CF910F910895D2
:102C000060E00C949915CF93DF93EC016111B9C08A
:102C10008F89882309F4B5C08D89811105C0CE0143
:102C2000DF91CF910C942C1581508D8B8DA181114A
:102C300038C08BA19CA101969C01220F331FEF8D00
:102C4000F8A1E20FF31F25913491422F47704EA354
:102C5000A90163E0569547956A95E1F7BA01769523
:102C60006795232F269526952FA36F732C81629F3E
:102C7000602D11246DA3417040931F069CA38BA36C
:102C800029A130E08217930760F08AA1882329F0F8
:102C9000281B31093CA32BA304C060E0CE010E9495
:102CA0002C158DA181508DA3288D2F5F288F4C89E5
:102CB0003FA1340F8C85380F3A836B8D662361F00A
:102CC00070E0822F992787FD90950E94101E8C8DB1
:102CD000869F300D11243A838A8190E0CB966BE376
:102CE00070E00E94101E8A833E893B83698D6623B3
:102CF00071F0772767FD7095822F992787FD909552
:102D00000E94101E8A8D869F300D11243B836D8D8D
:102D1000662391F0822F992787FD909570E00E949D
:102D2000101ECB0162E070E00E94101E2E8D9B8170
:102D3000289F900D11249B838B814F3339F08A306B
:102D40000CF089E087FD80E08B8301C01B82F89442
:102D5000EA81F0E0EC5DFB4FE491E093220698A558
:102D60008D81989F802D11249B81899F802D112416
:102D70009EA1899F802D1124809321068093200697
:102D80007894DF91CF91089560E00C9403166091E0
:102D90002106662321F1809124068F5F809324060B
:102DA000909122068917D8F08091230691E0892717
:102DB000809323061092240680911F06882369F0D1
:102DC00090910C0183E4989F802D1124895B80935E
:102DD0000C010E94F01D909320060C94211508957B
:102DE0001F920F920FB60F9211242F933F934F9380
:102DF0005F936F937F938F939F93AF93BF93EF9363
:102E0000FF930E94C716FF91EF91BF91AF919F91E1
:102E10008F917F916F915F914F913F912F910F9083
:102E20000FBE0F901F901895CF93DF93EC0160E0D9
:102E30000E943D158DE694E09E878D871B8A1A8A35
:102E400081E0898389E08E8B198E1B8E1D8EDF9128
:102E5000CF910895CF93DF93EC0160E00E943D1580
:102E600085E694E09E878D871B8A1A8A81E0898394
:102E700089E08E8B198E1B8E1D8EDF91CF91089568
:102E8000CF93DF93EC0160E00E943D158FE594E065
:102E90009E878D871B8A1A8A81E0898389E08E8BC1
:102EA000198E1B8E1D8EDF91CF910895FC01862F08
:102EB000992787FD9095668170E06F5F7F4F0E9434
:102EC000101E858308951F920F920FB60F92112442
:102ED0002F933F938F939F93AF93BF938091260639
:102EE00090912706A0912806B091290630912506D9
:102EF00023E0230F2D3720F40196A11DB11D05C03D
:102F000026E8230F0296A11DB11D2093250680936C
:102F1000260690932706A0932806B0932906809151
:102F20002A0690912B06A0912C06B0912D060196B1
:102F3000A11DB11D80932A0690932B06A0932C0609
:102F4000B0932D06BF91AF919F918F913F912F919B
:102F50000F900FBE0F901F9018952FB7F8946091A7
:102F600026067091270680912806909129062FBF8A
:102F700008953FB7F89480912A0690912B06A0916E
:102F80002C06B0912D0626B5A89B05C02F3F19F041
:102F90000196A11DB11D3FBF6627782F892F9A2F5B
:102FA000620F711D811D911D42E0660F771F881F02
:102FB000991F4A95D1F70895CF92DF92EF92FF9231
:102FC000CF93DF936B017C010E94B917EB01C11411
:102FD000D104E104F10489F00E94DF1B0E94B917BB
:102FE0006C1B7D0B683E734090F381E0C81AD108DA
:102FF000E108F108C851DC4FEACFDF91CF91FF9093
:10300000EF90DF90CF900895789484B5826084BD6E
:1030100084B5816084BD85B5826085BD85B58160DC
:1030200085BDEEE6F0E0808181608083E1E8F0E03C
:103030001082808182608083808181608083E0E86B
:10304000F0E0808181608083E1EBF0E0808184604A
:103050008083E0EBF0E0808181608083EAE7F0E04C
:1030600080818460808380818260808380818160B0
:1030700080838081806880831092C10008958E30A3
:1030800008F08E50877020910D0190E4299F9001E7
:103090001124822B80937C0080917A00806480933D
:1030A0007A0080917A0086FDFCCF80917800209193
:1030B000790090E0922B08951F93CF93DF93182F00
:1030C000EB0161E00E94E418209711F460E004C075
:1030D000CF3FD10539F461E0812FDF91CF911F916E
:1030E0000C941D19E12FF0E0EF57FB4FE491E33012
:1030F000F9F048F4E130B9F0E230A1F584B580622E
:1031000084BDC8BD34C0E730E9F0E83019F1E430DF
:1031100049F580918000806280938000D0938B007D
:10312000C0938A0024C084B5806884BDC7BD1FC019
:1031300080918000806880938000D0938900C09344
:10314000880015C08091B00080688093B000C09363
:10315000B3000DC08091B00080628093B000C09336
:10316000B40005C0C038D1050CF0B5CFAFCFDF91AA
:10317000CF911F910895833081F028F4813099F028
:103180008230A1F008958730A9F08830B9F08430FA
:10319000D1F4809180008F7D03C0809180008F7773
:1031A00080938000089584B58F7702C084B58F7DA9
:1031B00084BD08958091B0008F7703C08091B000E6
:1031C0008F7D8093B0000895CF93DF9390E0FC0152
:1031D000EB56FB4F2491FC01E755FB4F849188236C
:1031E00049F190E0880F991FFC01EF52FB4FA59128
:1031F000B49189539B4FFC01C591D4919FB7611144
:1032000008C0F8948C91209582238C938881822326
:103210000AC0623051F4F8948C91322F3095832398
:103220008C938881822B888304C0F8948C91822BA4
:103230008C939FBFDF91CF9108950F931F93CF93EE
:10324000DF931F92CDB7DEB7282F30E0F901EF579B
:10325000FB4F8491F901EB56FB4F1491F901E755AF
:10326000FB4F04910023C9F0882321F069830E9459
:10327000BB186981E02FF0E0EE0FFF1FE953FB4F11
:10328000A591B4919FB7F8948C91611103C01095EA
:10329000812301C0812B8C939FBF0F90DF91CF9131
:1032A0001F910F910895CF93DF93282F30E0F901FC
:1032B000EF57FB4F8491F901EB56FB4FD491F90185
:1032C000E755FB4FC491CC2391F081110E94BB18AC
:1032D000EC2FF0E0EE0FFF1FE354FB4FA591B491EC
:1032E0002C912D2381E090E021F480E002C080E069
:1032F00090E0DF91CF9108951F920F920FB60F9239
:1033000011242F938F939F93EF93FF93E0913E06A9
:10331000F0913F068081E0914406F091450682FDE0
:1033200012C09081809147068F5F8F73209148066D
:10333000821751F0E0914706F0E0E25DF94F958F7A
:103340008093470601C08081FF91EF919F918F91FB
:103350002F910F900FBE0F901F9018951F920F92F4
:103360000FB60F9211242F933F934F935F936F9358
:103370007F938F939F93AF93BF93EF93FF938EE2CF
:1033800096E00E941B1CFF91EF91BF91AF919F911E
:103390008F917F916F915F914F913F912F910F90FE
:1033A0000FBE0F901F9018958EE296E00E94E01BD2
:1033B00021E0892B09F420E0822F08951092310634
:1033C0001092300688EE93E0A0E0B0E080933206E1
:1033D00090933306A0933406B093350681E491E0D0
:1033E00090932F0680932E0685EC90E090933B06F9
:1033F00080933A0684EC90E090933D0680933C06DF
:1034000080EC90E090933F0680933E0681EC90E044
:10341000909341068093400682EC90E0909343069F
:103420008093420686EC90E0909345068093440694
:1034300010924706109248061092490610924A06CA
:10344000089508950E9404180E94211A0E94B6044B
:10345000CDE0DCE10E94CC042097E1F30E940D1C3A
:10346000F9CFCF92DF92EF92FF920F931F93CF93FA
:10347000DF936C017A01EB01E60EF71E00E010E02D
:10348000CE15DF0561F06991D601ED91FC910190B7
:10349000F081E02DC6010995080F191FF1CFC80171
:1034A000DF91CF911F910F91FF90EF90DF90CF9020
:1034B00008956115710581F0DB010D900020E9F799
:1034C000AD0141505109461B570BDC01ED91FC91B8
:1034D0000280F381E02D099480E090E00895EF925E
:1034E000FF920F931F93CF93DF938C01FB01C0E0FA
:1034F000D0E064917F018FEFE81AF80A662361F04B
:10350000D801ED91FC910190F081E02DC801099561
:10351000C80FD91FF701EDCFCE01DF91CF911F91D9
:103520000F91FF90EF900895DC01ED91FC910190D7
:10353000F081E02D09946CE271E00C94591A0F931C
:103540001F93CF93DF93EC010E946F1A8C01CE0181
:103550000E949B1A800F911FDF91CF911F910F91B5
:1035600008950F931F93CF93DF93EC010E94591A94
:103570008C01CE010E949B1A800F911FDF91CF9189
:103580001F910F9108958F929F92AF92BF92CF9209
:10359000DF92EF92FF920F931F93CF93DF93CDB7FC
:1035A000DEB7A1970FB6F894DEBF0FBECDBF7C018A
:1035B000C42EE52FCB01D22E19A221E02D1510F03B
:1035C0002AE0D22E8E010F5D1F4F8D2C912CA12C45
:1035D000B12C6C2D7E2FA50194010E94241E8C2DF0
:1035E000D29E80191124015011098A3014F4805D93
:1035F00001C0895CF8018083211531054105510521
:1036000021F0C22EE32FCA01E4CFB801C7010E9406
:10361000591AA1960FB6F894DEBF0FBECDBFDF9149
:10362000CF911F910F91FF90EF90DF90CF90BF90BF
:10363000AF909F908F900895CF92DF92EF92FF927C
:103640000F931F93CF93DF93EC016A017B01211548
:10365000310579F4E881F9810190F081E02D642F42
:10366000DF91CF911F910F91FF90EF90DF90CF905E
:1036700009942A303105E9F477FF1AC06DE20E94FF
:10368000941A8C0144275527BA014C195D096E091B
:103690007F092AE0CE010E94C31A800F911FDF919B
:1036A000CF911F910F91FF90EF90DF90CF900895F1
:1036B0002AE0B701A601CE01DF91CF911F910F91B2
:1036C000FF90EF90DF90CF900C94C31A9A01AB015A
:1036D000662757FD6095762F0C941C1B211531052C
:1036E00041F4DC01ED91FC910190F081E02D642F1B
:1036F00009940C94C31A0F931F93CF93DF93EC019B
:103700009A01462F50E060E070E00E946E1B8C0131
:10371000CE010E949B1A800F911FDF91CF911F91C4
:103720000F9108959A01AB0160E070E00C946E1B5C
:103730004F925F926F927F92AF92BF92CF92DF9241
:10374000EF92FF920F931F93CF93DF93CDB7DEB726
:1037500029013A01621B730B840B950B29893A8965
:103760004B895C892A193B094C095D09298B3A8BE5
:103770004B8B5C8B9B01AC0169897A898B899C8915
:103780000E94E01DE418F50806091709A801970131
:103790000E94461E2A0D3B1D4C1D5D1DCA01B9012C
:1037A000DF91CF911F910F91FF90EF90DF90CF901D
:1037B000BF90AF907F906F905F904F900895089565
:1037C000FC01818D228D90E0805C9F4F821B9109CE
:1037D0008F7399270895FC01918D828D981731F090
:1037E000828DE80FF11D858D90E008958FEF9FEF9A
:1037F0000895FC01918D828D981761F0828DDF0113
:10380000A80FB11D5D968C91928D9F5F9F73928FD3
:1038100090E008958FEF9FEF089584ED99E1892B53
:1038200049F080E090E0892B29F00E94D4198111A1
:103830000C9400000895FC01848DDF01A80FB11DD8
:10384000A35ABF4F2C91848D90E001968F739927D6
:10385000848FA689B7892C93A089B1898C918064C3
:103860008C93938D848D981306C00288F389E02D84
:1038700080818F7D80830895CF93DF93EC01888DC5
:103880008823C9F0EA89FB89808185FD05C0A88964
:10389000B9898C9186FD0FC00FB607FCF5CF8081EA
:1038A00085FFF2CFA889B9898C9185FFEDCFCE0134
:1038B0000E941B1CE7CFDF91CF910895CF92DF923A
:1038C000FF920F931F93CF93DF931F92CDB7DEB775
:1038D0006C0181E0D60158968C9358975B969C9129
:1038E0005B975C968C915C97981307C05096ED910E
:1038F000FC915197808185FD2EC0F601038D10E06B
:103900000F5F1F4F0F731127F02EF601848DF812F1
:1039100011C00FB607FCF9CFD6015096ED91FC917E
:103920005197808185FFF1CFC60169830E941B1CDE
:103930006981EBCF838DE80FF11DE35AFF4F608360
:10394000D6015B960C935B975296ED91FC91539741
:10395000808180620CC0D6015696ED91FC915797FC
:1039600060835096ED91FC915197808180648083B3
:1039700081E090E00F90DF91CF911F910F91FF9028
:10398000DF90CF90089598D088F09F5790F0B92F8E
:103990009927B751A0F0D1F0660F771F881F991FA4
:1039A0001AF0BA95C9F712C0B13081F09FD0B1E0DA
:1039B00008959CC0672F782F8827B85F39F0B93FEA
:1039C000CCF3869577956795B395D9F73EF49095A6
:1039D0008095709561957F4F8F4F9F4F0895E89424
:1039E00009C097FB3EF490958095709561957F4F47
:1039F0008F4F9F4F9923A9F0F92F96E9BB279395F5
:103A0000F695879577956795B795F111F8CFFAF404
:103A1000BB0F11F460FF1BC06F5F7F4F8F4F9F4F35
:103A200016C0882311F096E911C0772321F09EE893
:103A3000872F762F05C0662371F096E8862F70E0F9
:103A400060E02AF09A95660F771F881FDAF7880FD3
:103A50009695879597F9089597F99F6780E870E0A4
:103A600060E008959FEF80EC089500240A941616F4
:103A7000170618060906089500240A94121613065C
:103A8000140605060895092E0394000C11F48823EA
:103A900052F0BB0F40F4BF2B11F460FF04C06F5F06
:103AA0007F4F8F4F9F4F089557FD9058440F551FDC
:103AB00059F05F3F71F04795880F97FB991F61F0B0
:103AC0009F3F79F087950895121613061406551F27
:103AD000F2CF4695F1DF08C0161617061806991F93
:103AE000F1CF86957105610508940895E894BB2788
:103AF00066277727CB0197F908950BD0C4CFB5DFA0
:103B000028F0BADF18F0952309F0A6CFABCF112427
:103B1000EECFCADFA0F3959FD1F3950F50E0551F6C
:103B2000629FF001729FBB27F00DB11D639FAA2712
:103B3000F00DB11DAA1F649F6627B00DA11D661F61
:103B4000829F2227B00DA11D621F739FB00DA11D82
:103B5000621F839FA00D611D221F749F3327A00D3C
:103B6000611D231F849F600D211D822F762F6A2FD8
:103B700011249F5750408AF0E1F088234AF0EE0F5D
:103B8000FF1FBB1F661F771F881F91505040A9F76A
:103B90009E3F510570F060CFAACF5F3FECF3983E97
:103BA000DCF3869577956795B795F795E7959F5FD1
:103BB000C1F7FE2B880F911D9695879597F908956B
:103BC000DB018F939F930E94651EBF91AF91A29FCF
:103BD000800D911DA39F900DB29F900D112408950B
:103BE000991B79E004C0991F961708F0961B881F4F
:103BF0007A95C9F780950895AA1BBB1B51E107C0B0
:103C0000AA1FBB1FA617B70710F0A61BB70B881F6C
:103C1000991F5A95A9F780959095BC01CD010895FB
:103C200097FB072E16F4009407D077FD09D00E9469
:103C3000FC1D07FC05D03EF4909581959F4F08959B
:103C4000709561957F4F0895A1E21A2EAA1BBB1BA8
:103C5000FD010DC0AA1FBB1FEE1FFF1FA217B30758
:103C6000E407F50720F0A21BB30BE40BF50B661F6E
:103C7000771F881F991F1A9469F760957095809532
:103C800090959B01AC01BD01CF010895052E97FBD6
:103C90001EF400940E945D1E57FD07D00E94241E52
:103CA00007FC03D04EF40C945D1E50954095309562
:103CB00021953F4F4F4F5F4F089590958095709598
:103CC00061957F4F8F4F9F4F08950E94761EA59F4D
:103CD000900DB49F900DA49F800D911D1124089507
:103CE000EE0FFF1F0590F491E02D0994A29FB00103
:103CF000B39FC001A39F700D811D1124911DB29F20
:103D0000700D811D1124911D0895CF93DF93823092
:103D1000910510F482E090E0E091CD06F091CE069E
:103D200020E030E0A0E0B0E0309739F140815181EF
:103D300048175907B8F04817590771F482819381E1
:103D4000109729F013969C938E9312972CC0909302
:103D5000CE068093CD0627C02115310531F04217DC
:103D6000530718F0A901DB0101C0EF019A01BD0161
:103D7000DF010280F381E02DD7CF21153105F9F065
:103D8000281B390B2430310580F48A819B81611511
:103D9000710521F0FB019383828304C09093CE06CA
:103DA0008093CD06FE01329644C0FE01E20FF31F60
:103DB0008193919322503109398328833AC020910D
:103DC000CB063091CC06232B41F420910201309197
:103DD00003013093CC062093CB0620910001309153
:103DE00001012115310541F42DB73EB74091040181
:103DF00050910501241B350BE091CB06F091CC06C8
:103E0000E217F307A0F42E1B3F0B2817390778F0B1
:103E1000AC014E5F5F4F2417350748F04E0F5F1F10
:103E20005093CC064093CB068193919302C0E0E07F
:103E3000F0E0CF01DF91CF910895CF93DF9300970A
:103E400009F487C0FC01329713821282C091CD061B
:103E5000D091CE06209781F420813181280F391F1F
:103E60008091CB069091CC068217930779F5F09359
:103E7000CC06E093CB066DC0DE0120E030E0AE174B
:103E8000BF0750F412964D915C9113979D01411517
:103E9000510509F1DA01F3CFB383A2834081518147
:103EA000840F951F8A179B0771F48D919C91119730
:103EB000840F951F02969183808312968D919C9119
:103EC0001397938382832115310529F4F093CE064D
:103ED000E093CD063EC0D9011396FC93EE93129762
:103EE0004D915D91A40FB51FEA17FB0779F480810E
:103EF0009181840F951F0296D90111969C938E9300
:103F00008281938113969C938E931297E0E0F0E068
:103F10008A819B81009719F0FE01EC01F9CFCE0157
:103F2000029628813981820F931F2091CB06309110
:103F3000CC062817390769F4309729F41092CE0679
:103F40001092CD0602C013821282D093CC06C09389
:103F5000CB06DF91CF910895F999FECF92BD81BD37
:103F6000F89A992780B50895262FF999FECF1FBAA0
:103F700092BD81BD20BD0FB6F894FA9AF99A0FBE92
:083F800001960895F894FFCFAB
:103F88000000CF06800001000000010101014F750B
:103F980074206F66206D656D6F72792100000000D6
:103FA80000A30E311A4C4F41444552000D0A006ED1
:103FB800616E00696E66006F7666002E0000000074
:0E3FC800005E1C311AE01BF91BEB1B3C1C00B9
:00000001FF
